:100000000C9412020C9459020C9459020C946E0F29
:100010000C9459020C9459020C9459020C945902F4
:100020000C9459020C9459020C9490200C94642165
:100030000C94D21B0C9459020C9459020C94590242
:100040000C9459020C9459020C9459020C945902C4
:100050000C9459020C94291C0C9459020C945902CA
:100060000C9459020C9459020C9459020C945902A4
:100070000C9459020C9459020C9459020C94590294
:100080000C9459020C9459020C9459020C94590284
:100090000C9459020C9459020C9459020C94590274
:1000A0000C9459020C9459020C94590229001E0018
:1000B0001F002000210022002B0014001A0008005D
:1000C00015001700E00004001600070009000A00F0
:1000D000E2001D001B00060019000500000002518F
:1000E000E300E1002C000451350027002600250024
:1000F000240023002D00130012000C0018001C0027
:10010000340033000F000E000D000B00E600380035
:100110003700360010001100000001512A00E500F0
:1001200028003000010001004C005400550056002A
:100130003A003B005F0060006100570035001E027E
:100140005C005D005E0085000100010059005A005E
:100150005B006700000001006200630058000100BE
:100160000100010001000100010001004500440000
:1001700043004200410040003502270226022502CA
:1001800024022302310230022F022E022D0200002F
:1001900000000351E4003900010001003A003B0077
:1001A000010001000100010035001E001F002000B9
:1001B000210022003A003B003C003D003E003F0091
:1001C000400041004200430044004500000001009F
:1001D00001000351010001000100010001000100C4
:1001E0000100010001002700260052004B002300FF
:1001F00000004D004F00510050004A003100300017
:100200002F002E004E002E02000001004C00E500E1
:100210000100460000000000000000000000000097
:1002200000000000000000000000000000000000CE
:1002300000000000000000000000000000000000BE
:1002400000000000000001000100010001000000AA
:10025000000000000000000000000000000000009E
:10026000000000000000000000000000000000008E
:10027000000000000000000000000000000000007E
:10028000000001000100010001000000000000006A
:100290000000F300F200F100000000000000000088
:1002A000000000000000000000000000000000004E
:1002B000000000000000000000000000000000003E
:1002C0000000000000000100000000000000F3003A
:1002D000F200F1000000000000000000000000003B
:1002E000000000000000000000000000000000000E
:1002F00000000000000000000000000000000000FE
:100300000000000000AE00AF00DA0281FFD9F1DB8F
:1003100020A4A62EAF00A0C000A1C800AED580A822
:100320001FD300408D1420000E034C0069006C00A8
:10033000790035003800000010036C0069006C0083
:10034000690075006D0073000000040309040902D0
:100350003B00020100A0FA090400000103010100B2
:100360000921110100012240000705810308000A4C
:10037000090401000103000000092111010001220C
:1003800049000705820320000A1201100100000045
:1003900008D8042DEB00010102000105010902A1AA
:1003A0000185020901A10005091901290815002587
:1003B0000195087501810205010930093115812572
:1003C0007F95027508810609381581257F9501758D
:1003D000088106050C0A38021581257F95017508EC
:1003E0008106C0C005010906A101050719E029E73A
:1003F0001500250195087501810295017508810197
:100400000507190029FF150026FF009506750881CC
:1004100000050819012905950575019102950175D9
:10042000039101C011241FBECFEFDAE0DEBFCDBFC4
:1004300004B603FE27C080915A0490915B04A091FA
:100440005C04B0915D048730904BA740B04BD1F471
:1004500010925A0410925B0410925C0410925D0496
:1004600014BE84B7877F84BF0FB6F894A895809197
:100470006000886180936000109260000FBEE0E031
:10048000F8E3099511E0A0E0B1E0ECE7F7E402C081
:1004900005900D92AE33B107D9F724E0AEE3B1E099
:1004A00001C01D92AA35B207E1F70E94CC1D0C9441
:1004B00098230C9400000C945F0281E0089581E081
:1004C000089508950C9461021F93CF93DF9300D099
:1004D00000D00F92CDB7DEB749835A836B8330913A
:1004E000A30189819A8131111DC06623B9F02223AD
:1004F000A9F00E941919182F682F89819A810E94EA
:10050000C21869817A81812F0F900F900F900F9000
:100510000F90DF91CF911F910C9422030E94F0184D
:10052000182FEFCF0E94191969817A81EDCFFC0154
:10053000262F408151816281738184810C946402F1
:10054000CF93DF93EC0160E00E949702BE01DF9140
:10055000CF910C9462020E94E9040C940E050C9455
:10056000110508950E94B6140E94B1022FEF84E392
:100570009CE0215080409040E1F700C000000C94C6
:100580008E1C0F931F93CF93DF938C0161E00E9429
:100590009702EC01B8010E945B028823A9F1B8011F
:1005A000CE010E94DD0B882379F1B801CE010E94B3
:1005B0002F0C882349F1B801CE010E94520D8823E7
:1005C00019F1F8018281882361F0CB35FDE5DF0761
:1005D00021F170F4C115ECE5DE07A1F0CF3DDC455B
:1005E000C9F0C801DF91CF911F910F910C945D026A
:1005F000CC358DE5D807A1F0CD35DD4591F70E94CA
:10060000C019EFCF0E94B20280E0DF91CF911F911D
:100610000F9108950E94261BF7CF0E94C919E1CFC0
:100620000E94CC19DECF08950C94130381E0089545
:100630000C941603CF93C82F0E9414038C2FCF91D4
:100640000C941803972F70E026E0929F600D711DA7
:100650001124FB019CE3899FE00DF11D1124EE0F95
:10066000FF1FE455FF4F859194910895CF93DF9339
:100670000E9422030E940E04EC01811522E59207DC
:1006800078F5811531E5930708F098C08F3F910503
:1006900009F0B8F48D3E910508F06FC0853A9105D8
:1006A00040F48430910548F4019739F0D0E0C0E07F
:1006B00004C0805E91090897C8F7CE01DF91CF9101
:1006C0000895811540E5940708F05CC0C11580E4E9
:1006D000D80708F054C0C11590E2D90770F3E6CFEF
:1006E000811526E5920718F5811535E5930708F081
:1006F0007DC0811544E5940708F073C0982F969546
:1007000096959E0123703327C115D34508F45BC02D
:10071000C1E0D0E002C0CC0FDD1F2A95E2F730E245
:10072000939FC0011124C82BD92BDA68C6CFC115FD
:100730009AE5D90778F4C11529E5D20708F060C019
:10074000C11538E5D30708F4B1CFDC2FCC27C06F33
:10075000D06AB3CFCE0190568115904208F0A6CF53
:100760008D2F8F710E94A50490E0982F88278827ED
:100770009F719C012C2BE90141C0D0659ECFDF7099
:10078000D06A9BCFE4E096958795EA95E1F7837070
:100790002C2F26952695237090E2299F90011124F5
:1007A000382B8C2F8370C1E0D0E002C0CC0FDD1F4E
:1007B0008A95E2F7C22BD32BDC687FCFD82FCC27CA
:1007C000C16FD06A7ACFC1E0D0E002C0CC0FDD1F8C
:1007D0002A95E2F720E2929FC0011124C82BD92B61
:1007E000EBCFD82FCC27C46FD06A67CF0E94A50467
:1007F000C82FD0E0DC2FCC27CC27DF71D0625DCFB3
:100800008C2F8F700E94A50434E0D695C7953A9539
:10081000E1F7CF709C2FEC01D0694FCF8238910562
:10082000B1F1B0F48133910509F475C048F489320F
:10083000910509F469C08A32910509F473C00895DD
:100840008533910509F459C08933910501F1089563
:10085000833E9105A9F138F4803E9105F9F0823E7E
:10086000910549F10895863E9105A9F1873E9105CC
:10087000C9F1843E910519F52091260221FF1FC080
:100880008091250284FD14C087EE90E008952091A8
:1008900025022370A1F080EE90E0089520912502BA
:1008A00020FD47C03091260230FF09C024FF44C01C
:1008B00090E080E004C02091250222FDF7CF08954A
:1008C0002091250222FD3BC03091260230FDE3CF6E
:1008D00024FFF5CFEDCF2091250223FFF0CF24FD9B
:1008E000E7CFD2CF2091250223FD2CC030912602E4
:1008F00031FFEECF84EE90E008952091250225FF90
:10090000DECF89E290E008952091250225FFD7CF20
:1009100085E390E008952091250226FFD0CF8AE25A
:1009200090E008952091250226FFC9CF81E390E051
:10093000089589E390E0089583EE90E0089582EEB3
:1009400090E0089586EE90E008959091250292FF40
:1009500006C0282F28712830F9F4877F846093FF20
:1009600006C0282F28712831F1F4877E84612091F8
:10097000260220FF06C0382F38713830D9F4877F1F
:10098000816021FF06C0282F28712831D1F4877E8D
:10099000816194FD877E0895282F24712430F9F613
:1009A0008B7F8860DCCF282F2471243101F78B7E68
:1009B0008861DDCF382F3171313019F78E7F886033
:1009C000E0CF282F2171213121F78E7E8861E1CF80
:1009D00008950E94811A811102C00E94261B0E9464
:1009E0008C1A809319020E94941A90932602809385
:1009F00025020E94E8040E94901A682F70E090E09F
:100A000080E00E94C41760910402709105028091F9
:100A10000602909107020C94FE1708950C940D05A0
:100A200008950C941005E82FF0E0EF5CFD4F8081F5
:100A30000895089580EA8A95F1F7089500C0089511
:100A40000C941A05F894E82FE295EF70F0E031A1CC
:100A5000282F2F7081E090E001C0880F2A95EAF7D7
:100A6000982F9095932391A392A1892B82A3789498
:100A7000089508950C9439050E94C00680910001E4
:100A80008091000195E0811190E090933C0285E017
:100A9000891B80933B0286E60E94220587E90E941B
:100AA000220586EC0E94220584E30E94220585E34C
:100AB0000E94220586EF0E94220587EF0E942205F0
:100AC00081E30E94220583E30E94220582E30E94C3
:100AD000220586E30E942205E7E2F2E0A1E3B2E00C
:100AE00081E392E011921D928E179F07D9F785E05E
:100AF0000E946F060E94AB020C94CA06FF920F93ED
:100B00001F93CF93DF9300D000D00F92CDB7DEB705
:100B10000E94A606F82E60913C02882309F450C07A
:100B20008E010F5F1F4F85E0F80111928A95E9F75A
:100B3000862F90E0B8018F5C9D4F0E94880D811137
:100B400022C0809140018F5F809340018630B0F1D8
:100B5000E0913B02F0E0EF5CFD4FD801CE0106963C
:100B600011921D92A817B907D9F70E94AF028F2DD5
:100B70000F900F900F900F900F90DF91CF911F91DA
:100B80000F91FF90089510924001A0913B02B0E0B8
:100B9000AF5CBD4F9E012A5F3F4FF12C4D91F80194
:100BA00091918F01491731F0AD0141505109FA017E
:100BB0009083F82E0217130789F7D7CFF12CD5CFE2
:100BC00070E06F5C7D4F80913B0290E08F5C9D4FA9
:100BD0000E94B10D0E943A05CACFCF92DF92EF92E8
:100BE000FF920F931F93CF93DF930BE211E087E205
:100BF000E82E82E0F82EC0E0CC24C394D12CF8017A
:100C000081918F01F894E82FE295EF70F0E021A137
:100C10008F70A60102C0440F551F8A95E2F7CA01E2
:100C2000922F982B91A392A18095892382A37894E7
:100C30000E941E05E5E2F1E030E020E0D0E04191C5
:100C4000A42FA295AF70B0E090968C9190E04F7079
:100C500002C0959587954A95E2F780FD3CC08C2DA2
:100C6000022E01C0880F0A94EAF7D82B2F5F3F4F5E
:100C70002630310521F7F801319780810E94220545
:100C80000E942005F7018081D81739F1D08381E0D7
:100C9000C82BFFEFEF1AFF0A41E00033140709F0F9
:100CA000AECF60913C0270E06F5C7D4F2C2F45E031
:100CB00087E292E00E9470060E947E05C11101C089
:100CC000C82F8C2FDF91CF911F910F91FF90EF9044
:100CD000DF90CF90089580E0C8CF80E0D9CF08950D
:100CE000FF920F931F93CF93DF93F82E092F162FA8
:100CF000D72FC42F222349F081E0809343010E9423
:100D0000021C90934201809341018091430188230A
:100D1000A1F080914101909142010E941A1C069716
:100D200060F0EF2DF02FA12FBD2FCE0FDF2FD11DA3
:100D3000EC17FD0741F410924301DF91CF911F9111
:100D40000F91FF90089581918D93F2CF809144018E
:100D5000811107C00E941B23882351F081E08093FA
:100D6000440181E090914401913009F080E00895C0
:100D700082E0809344010E941623F3CF0C94A606D0
:100D80000E94BE06809300010E94A60681110C9469
:100D90007C0D08950E94A606811102C00C94820D5C
:100DA000089580914B0180FF12C06091060185E09B
:100DB000689FB001112475956795759567956038A2
:100DC0007105A8F561157105A1F1862F089581FFC0
:100DD00009C06091060185E0689FB00111247595F6
:100DE0006795EDCF6091060182FD0AC080914A01AE
:100DF0008823D1F09091050160910601891728F0B0
:100E000085E0689FB0011124DACF869FB0011124DC
:100E100085E0869F9001879F300D1124692F70E037
:100E2000C9010E943C23CBCF65E070E0CECF8FE7B5
:100E3000089581E0089580914B0180FF0CC060917E
:100E4000020170E075956795759567956115710557
:100E500049F1862F089581FF06C06091020170E07C
:100E600075956795F3CF6091020182FD0BC090915B
:100E700049019923A1F06091010180910201961727
:100E800038F0682F70E06038710500F38FE708953F
:100E9000899FC001112470E00E943C23F4CF61E0DF
:100EA00070E0D7CF81E008958D3E31F40E94D106E5
:100EB000819580934F0108958E3E19F40E94D106CA
:100EC000F8CF8F3E31F40E94D106819580934E0178
:100ED0000895803F19F40E94D106F8CF893F29F484
:100EE0000E941B078093500108958A3F21F40E94BD
:100EF0001B078195F7CF8B3F31F40E941B0781952B
:100F00008093510108958C3F19F40E941B07F8CF7C
:100F10009FE0980F983070F4815F990B21E030E0EA
:100F200001C0220F8A95EAF780914D01822B8093B0
:100F30004D0108958D3F31F480914B018160809384
:100F40004B0108958E3F21F480914B018260F7CFD1
:100F50008F3FB9F780914B018460F1CF40914E01F2
:100F60008D3E59F480914F0187FF0DC010924F01C3
:100F700041110BC010924A0108C08E3E81F480914D
:100F80004F0118169CF3442381F0809150019091F9
:100F90005101892B09F05AC01092490108958F3EE2
:100FA00049F447FFF0CF10924E0180914F0181111B
:100FB000ECCFE0CF803F19F41416ACF3E4CF90915E
:100FC0005001893F29F41916F4F610925001DBCF35
:100FD0008A3F19F497FFD7CFF8CF909151018B3FFB
:100FE00029F497FFD0CF10925101CDCF8C3F19F447
:100FF0001916CCF3C8CF9FE0980F983090F4815F1A
:10100000990B21E030E0B90102C0660F771F8A9585
:10101000E2F7CB01809590914D01892380934D019A
:10102000B2CF8D3F31F480914B018E7F80934B0185
:10103000AACF8E3F21F480914B018D7FF7CF8F3F58
:1010400009F0A1CF80914B018B7FF0CF08950E94D2
:10105000021C9C0190914E0180914F01982B21F030
:1010600030934801209347019091500180915101A4
:10107000982B21F030934601209345018CE491E0B8
:101080000C949710EF92FF920F931F93CF93DF93DF
:1010900000D000D000D0CDB7DEB786E0ECE4F1E0C0
:1010A000DE01119601900D928A95E1F7E0904E01D4
:1010B000F0904F01009150011091510110924E019A
:1010C00010924F0110925001109251018E2D8F29D4
:1010D00091F080914701909148010E941A1CAC0147
:1010E00090914A01992309F43FC080910701841728
:1010F000150608F447C0802F812B91F0809145019F
:10110000909146010E941A1CAC01909149019923CB
:1011100009F477C0809103018417150608F47FC095
:1011200080914E0190914F01892B90915001892B14
:1011300090915101892B11F00E94270886E0FE0151
:101140003196ACE4B1E001900D928A95E1F72696D4
:101150000FB6F894DEBF0FBECDBFDF91CF911F91C8
:101160000F91FF90EF900895209108018AE0289F49
:10117000900111242417350708F0BDCF9F5F90938D
:101180004A0102C09F3FD1F7EE2059F00E94D106DC
:101190009FEF1E140CF491E0899F802D1124809301
:1011A0004E01FF2059F00E94D1069FEF1F140CF44E
:1011B00091E0899F802D112480934F0130914E0141
:1011C000332309F498CF20914F01222309F493CFC0
:1011D00045EB3403C0011124992359F090934E013B
:1011E00045EB240390011124332339F030934F0150
:1011F00082CF81E080934E01F3CF81E080934F0155
:101200007ACF209104018AE0289F900111242417AD
:10121000350708F085CF9F5F9093490102C09F3F3B
:10122000D1F7002359F00E941B079FEF10160CF412
:1012300091E0899F802D112480935001112359F052
:101240000E941B079FEF11160CF491E0899F802DDF
:1012500011248093510130915001332309F460CF60
:1012600020915101222309F45BCF45EB3403C001E7
:101270001124992359F09093500145EB24039001D8
:101280001124332339F0309351014ACF81E0809308
:101290005001F3CF81E08093510142CF86E0ECE42E
:1012A000F1E0DF011D928A95E9F710924A01109250
:1012B000490110924B010895CF92DF92EF92FF9275
:1012C0000F931F93CF93DF936C017B0164E670E073
:1012D00088E70E94D50DEC0197FD12C010E000E0F8
:1012E000F601E00FF11F849164E670E00E94310E78
:1012F000EC01892B29F40F5F1F4F0E151F0581F795
:101300000E94B40ECE01DF91CF911F910F91FF90FB
:10131000EF90DF90CF9008950895EDE3F2E080E044
:1013200092E0DF019C011D9221503040E1F7F093E3
:101330004404E09343048FEF9FEF909378018093F0
:10134000770108950E948C098093730180FD0FC07E
:1013500080E8809372010E94CF0D6DE070E08BE118
:1013600093E00E945C09892B21F080E0089580E2DF
:10137000F0CF8091730163E070E081FD26C088E1C9
:1013800093E00E945C09892B81F76DE070E088E0B2
:1013900093E00E945C09892B41F70E940E1C605A61
:1013A00075418F4F9F4F60933F047093400480932B
:1013B0004104909342040E948D0981E0809376015C
:1013C0008093750110927401089585E193E0D9CF5F
:1013D0002091720136E0839FC0011124629F800D2D
:1013E000911D1124811522E0920714F090E080E015
:1013F000835C9D4F909344048093430408958091AF
:101400007601811103C08091750108950E940E1C20
:10141000605A75418F4F9F4F60933F047093400413
:101420008093410490934204809175018111EBCF28
:1014300062E070E086E093E00E945C09892B19F776
:1014400081E080937501DFCF2F923F925F926F9280
:101450007F928F929F92AF92BF92CF92DF92EF9244
:10146000FF920F931F93CF93DF9380917601882390
:1014700069F020917701309178012115310531F023
:101480008091740161E070E0882399F0DF91CF9141
:101490001F910F91FF90EF90DF90CF90BF90AF9092
:1014A0009F908F907F906F905F903F902F900895C6
:1014B0008F5F082F10E01B01082E02C0220C331C86
:1014C0000A94E2F7A90142215321452B89F3909117
:1014D000730190FD44C08295880F807680930B0144
:1014E0009801369527953695279520930E01815EB4
:1014F00080930C0110920F0124E630E047E050E0A9
:1015000069E071E088E70E94600E892B09F0BECF88
:10151000A80125E0440F551F2A95E1F7809173013A
:1015200080FD2BC0435C5D4F04E610E020E230E01C
:1015300060E488E70E94870E892B09F0A7CF0E94FC
:10154000FF09E101C095D0958091770190917801D4
:10155000C823D923D0937801C093770197CF880F00
:10156000880F880F80930B0110920E01895F809382
:101570000C0183E080930F01BFCFE2E5F1E080E250
:10158000DF011D928A95E9F7A9E3B1E005E311E0D7
:101590008DE3C82E81E0D82E97E0592E77247394DE
:1015A0008D91E80129918E01240F352F311D235C87
:1015B0003D4FE82FF0E0EE5AFE4F90E080E0652CC2
:1015C000681A872C082E01C0880C0A94EAF7790162
:1015D000A12CE701B9907E01B820662D6A196770C9
:1015E000962E062E000C770BDB2D01C0DD0F9A9492
:1015F000EAF77195619571096770772701C0B69414
:101600006A95EAF7BD2A6081962E9B289082A39462
:1016100068E0A612DECF019631968830910579F602
:10162000CA16DB0609F0BCCF04E610E020E230E089
:1016300042E551E07DCF8091750190917601911145
:1016400003C091E089270895882369F062E070E083
:1016500084E093E00E945C09892B19F08091750168
:1016600008951092750180917501EBCF08950F9345
:101670001F9380917601882389F180913D04909198
:101680003E040E941A1CC29760F00E94021C9093B4
:101690003E0480933D0460E080E00E94E8090E94DF
:1016A000360B0E94240A809175018823B9F00E94AC
:1016B0000E1C00913F041091400420914104309190
:1016C0004204601B710B820B930B6F3F7F4F8F4F58
:1016D0009F4720F41F910F910C941B0B1F910F91AA
:1016E00008950F931F93CF93DF93C42FD22FFC0144
:1016F00082818823C9F040937B010E94021C909351
:101700007A018093790180E28C0F883008F050C014
:10171000C77081E001C0880FCA95EAF7DF91CF91C9
:101720001F910F910C946E1210917B01141335C010
:101730008091790190917A010E941A1C843691055A
:1017400060F5C0E2CD0F1D17B9F080E2810F88303F
:1017500040F4177081E001C0880F1A95EAF70E94E3
:101760007512C83048F481E09D2F977001C0880F32
:101770009A95EAF70E946E12802F0E946612C83076
:10178000B8F4D77081E001C0880FDA95EAF7DF91ED
:10179000CF911F910F910C94751280E28C0F8830BD
:1017A00038F4C77081E001C0880FCA95EAF7EFCF1F
:1017B000DF91CF911F910F9108950F939C01CB0161
:1017C000243F4CE5340759F1A8F4293DFCE53F07D7
:1017D00001F12A3D4CE53407D1F1283D3C4591F417
:1017E00006E221EE41EE68ED7CE50E94710B80E09F
:1017F0000F910895263FFCE53F07E9F0B0F0273F41
:101800003C45F9F0FC018281882339F110927B017B
:10181000EFCF07E225EE45EE69ED7CE5E6CF06E287
:1018200021EE40EE64EF7CE5E0CF07E225EE44EEEA
:1018300065EF7CE5DACF06E221EE42EE66EF7CE56D
:10184000D4CF07E225EE46EE67EF7CE5CECF08E287
:1018500021E045EE6AED7CE5C8CF81E0C9CFCF93AA
:10186000DF93EC01FB018281882309F419C1C230A6
:10187000FCE5DF07C0F1C6319CE5D90730F09E01D9
:101880002B5F3C452930310570F50E94941A9093E6
:10189000260280932502C031ECE5DE0709F4CFC0B3
:1018A00008F05BC0C8308CE5D80709F4B6C088F5ED
:1018B000C430ECE5DE0709F4A8C0C0F4C2308CE502
:1018C000D80709F49CC0809125028260C330DC45B2
:1018D00009F498C080912502909126020E94A21AD4
:1018E0000E94B61480E0DF91CF9108958091250287
:1018F0008061C630ECE5DE0709F484C080912502E2
:101900008860C730DC4508F47DC080912502806284
:1019100079C0CC308CE5D80709F489C070F4809187
:1019200025028C60CA30ECE5DE0709F46BC008F4D0
:1019300078C0809125028E7F65C0CE308CE5D807B7
:1019400009F479C0809125028B7FCF30DC4508F403
:1019500059C0809125028F7E55C0CC3FECE5DE0753
:1019600009F457C030F5C3318CE5D80709F46FC0CE
:1019700078F4C131ECE5DE0709F465C0C231DC451D
:1019800009F0A8CF0E94B614809125028F773AC043
:10199000C5318CE5D80709F462C008F476C080919F
:1019A00026028160CB3FDC4509F094CF809326026C
:1019B00091CFC115FDE5DF0709F44DC088F4809192
:1019C00026028D7FCE3F9CE5D90781F380912602C8
:1019D0008E7FCF3FDC4550F3809126028360E6CFB7
:1019E000C230FDE5DF0709F459C008F444C080E0C7
:1019F000C330DD4509F06ECF0E94281B6BCF80916C
:101A0000250281608093250265CF80912502846044
:101A1000F9CF809126028260C9CF8091250280642F
:101A2000F1CF0E94B614809125028068EBCF80919F
:101A300025028D7FE7CF80912502877FE3CF8091BC
:101A400025028F7DDFCF809125028F7BDBCF8091B8
:101A50002502837FD7CF809126028C7FA7CF8091EC
:101A6000250282FB992790F921E0922790FB82F9C9
:101A700090FB83F9C7CF80912602982F90959170A3
:101A80008E7F892B90FB81F991CF0E94B6149091A3
:101A90002502892F97FB87F98058B4CF81E0ACCF1E
:101AA00081E021CFCF93DF93EB0186319C4511F587
:101AB0000E94CF199A81992399F08A7A91E009F4CA
:101AC00090E090937C01811109C089E20E948919FC
:101AD0000E94121A80E0DF91CF91089585E3F6CF3E
:101AE00080917C01811104C089E20E949019F0CF9D
:101AF00085E3FBCF81E0EFCF61E070E080E191E032
:101B00000C941B0F61E070E080E191E00C94240FD5
:101B1000CF93DF93D62FC72F90E080E00E94FD0F78
:101B20000097E9F4ED2FFC2FDC01AE57BE4F2C914E
:101B30002193019685309105B9F70E94731C6E5F61
:101B40007F4F8F4F9F4F60937E0170937F018093F3
:101B500080019093810181E0DF91CF91089580E031
:101B6000FBCFCF93DF93D62FC72F60917E0170916B
:101B70007F0180918001909181010E94561CED2F80
:101B8000FC2F90E080E02191DC01AE57BE4F2C93FA
:101B9000019685309105B9F7DF91CF9108951092A4
:101BA000B9008CE08093B8000895EF92FF920F93F4
:101BB0001F93CF93DF93182FEB011092BC0084EAA0
:101BC0008093BC000E94021C7C018091BC0087FFB6
:101BD00027C08091B900887F883029F08091B900B2
:101BE000887F8031D9F51093BB0084E88093BC00D6
:101BF0000E94021C8C018091BC0087FF24C02091B0
:101C0000B900287F90E080E02831B1F081E090E0D9
:101C1000203411F490E080E09195819591090CC0F9
:101C2000CF3FDC0791F20E94021C8E199F098C178E
:101C30009D0758F28EEF9FEFDF91CF911F910F918B
:101C4000FF90EF900895CF3FDC07A9F20E94021C9D
:101C5000801B910B8C179D0770F2ECCF8FEF9FEFDD
:101C6000EBCF0F931F93CF93DF93EB018093BB00D8
:101C700084E88093BC000E94021C8C018091BC000F
:101C800087FF11C02091B900287F81E090E02832C1
:101C900011F490E080E0919581959109DF91CF91C9
:101CA0001F910F910895CF3FDC0741F30E94021C62
:101CB000801B910B8C179D0708F38EEF9FEFEECFE3
:101CC000CF92DF92EF92FF920F931F93CF93DF9308
:101CD0006B018A017901B9010E94D50DE6010C0D55
:101CE0001D1DC017D10761F424E92093BC00DF91CA
:101CF000CF911F910F91FF90EF90DF90CF900895BB
:101D000097FDF2CFB70189910E94310EEACFCF92B1
:101D1000DF92EF92FF920F931F93CF93DF93C62F23
:101D20006A017901B8010E94D50D97FD0CC0B80178
:101D30008C2F0E94310EE601EC0CFD1CCE15DF0548
:101D400011F097FF0CC024E92093BC00DF91CF91E4
:101D50001F910F91FF90EF90DF90CF900895B80101
:101D600089910E94310EEACF84E98093BC000895E6
:101D70008EE14A9B02C08150E1F74A9BFECF089555
:101D80005A9880E28A95F1F75A9A0895FC013BE04F
:101D90003A95F1F720E090E080E031E040E14A95AB
:101DA000F1F7880F4A9B02C08160232742E04A95E1
:101DB000F1F7000040E14A95F1F79F5F6913EECF1C
:101DC00090E19A95F1F799B132E03A95F1F7000078
:101DD00040E14A95F1F792FB992790F992272081EB
:101DE000920F90830895EF92FF920F931F93CF93DA
:101DF000DF930F92CDB7DEB719828C017C01E60E1E
:101E0000F11C0E151F0561F481E09981911180E0AC
:101E10000F90DF91CF911F910F91FF90EF90089558
:101E20000E94B80E68E0CE0101960E94C60EF8012D
:101E300081938F01E6CF909389018093880160930D
:101E40008701529A5A9A0895909389018093880144
:101E50006093870152985A9AEA9AE9E6F0E0808105
:101E60008F7C808308956150770B91E001C0990FBA
:101E70006A95EAF720E031E0911108C0222391F041
:101E80005A9A80E28A95F1F75A980895492F482383
:101E900039F05A9A232740E24A95F1F79695ECCF0C
:101EA0005A98F9CF5A98EDCFFF920F931F93CF9383
:101EB000DF93EC018C01060F111DC017D10731F41F
:101EC000DF91CF911F910F91FF900895F9900E949B
:101ED000C00E68E08F2D0E94330FEFCF1F920F923C
:101EE0000FB60F9211240F931F932F933F934F938D
:101EF0005F936F937F938F939F93AF93BF93EF9372
:101F0000FF93CF93DF930F92CDB7DEB719820E9474
:101F1000B80E67E0CE0101960E94C60E082F069506
:101F200006950695982F92959570202F2570920F03
:101F3000292F2370969596958770920F891344C028
:101F40008981811141C0809187018017E8F120E1EA
:101F50002A95F1F75A9A529A82E08A95F1F700C0D1
:101F6000A8E00A9FC0011124009188011091890105
:101F7000080F191F5A98F8016581662321F08681A0
:101F800097810E94540F0E94C00EF0E1FA95F1F77C
:101F90005A9852985A9A20E12A95F1F7D801129648
:101FA0006C911297662331F113968D919C910E944A
:101FB000F30ED801ED91FC91882311F088E001C067
:101FC00082E080830E94B80E0F90DF91CF91FF9145
:101FD000EF91BF91AF919F918F917F916F915F91A1
:101FE0004F913F912F911F910F910F900FBE0F9026
:101FF0001F901895ED91FC91E1CF0F931F93CF9314
:10200000DF9320918701281719060CF471C08C0109
:1020100093E0000F111F9A95E1F7C0918801D091CC
:102020008901C00FD11FF894529A5A9825E02A9539
:10203000F1F70000982F969595708570980F892F6D
:10204000837096959695980F092B0E94C00E00C03C
:1020500067E0802F0E94330F80E18A95F1F7529854
:102060005A9A4A9B17C087E090E04A9915C06D8143
:10207000662321F18E819F810E94F30E81111EC083
:10208000529A5A9AE881F98182E08083789482E0BA
:1020900090E00DC000C0E5CF019771F4529A5A9AB2
:1020A000E881F98181E08083789481E090E0DF919C
:1020B000CF911F910F91089500C0D7CF0E94B80E05
:1020C00020E22A95F1F75A98529A80E18A95F1F721
:1020D0006A81662321F08B819C810E94540F0E94AB
:1020E000C00EE881F9811082789490E080E0DFCF23
:1020F00084E090E0DCCF90938F0180938E0108956F
:10210000E0918E01F0918F01309721F00190F081E4
:10211000E02D099480E00895E0918E01F0918F0107
:10212000309721F00280F381E02D09940895E09129
:102130008E01F0918F01309739F022E0DC012C9371
:102140000480F581E02D0994089520918C0130914F
:102150008D012817390771F090938D0180938C01C0
:10216000E0918E01F0918F01309721F00680F78188
:10217000E02D0994089520918A0130918B01281750
:10218000390771F090938B0180938A01E0918E0161
:10219000F0918F01309721F00084F185E02D0994B2
:1021A00008950E940E1C60939F017093A00180937C
:1021B000A1019093A20160939B0170939C01809375
:1021C0009D0190939E01089585B7806885BF85B76E
:1021D000806885BF0895089508950C94EB100895C4
:1021E0000C94EF100E94E4108FE79AE10E949F1C6C
:1021F0000E94EC100C94ED100C94A606089508951E
:102200000E94FE100C94FF100E94F91B0E944D1CAE
:102210000E943C0580E00E94A2090C94F0109F925D
:10222000AF92BF92CF92DF92EF92FF920F931F93E4
:10223000CF93DF93CDB7DEB72A970FB6F894DEBF02
:102240000FBECDBF0E94ED05C82E81110E94D11096
:1022500081E9A82E81E0B82E10E000E0902E802FBA
:102260000E941305E82EF501F1905F01F81609F4BC
:1022700054C08091190281FD0E9419058F2D8E2571
:10228000D12CFF24F394982F9F2109F441C00E9480
:10229000FC10882399F0DE829F82EF2081E009F410
:1022A00080E088870E94021C8160782F9A87898746
:1022B0004E815F8168858A850E94B611F801EF56CC
:1022C000FE4F8081F826F0820E94370BC1100E94D9
:1022D000FF090E9442080E94801090919001891786
:1022E00099F10E948010809390012A960FB6F8947D
:1022F000DEBF0FBECDBFDF91CF911F910F91FF9039
:10230000EF90DF90CF90BF90AF909F900C941A0306
:10231000D394FF0CF6E0DF12B6CF0F5F1F4F0A30E9
:10232000110509F09BCF8FEF89838A831B820E945E
:10233000021C8160782F9D838C8349815A816B8137
:102340008D810E94B611C0CF2A960FB6F894DEBFD9
:102350000FBECDBFDF91CF911F910F91FF90EF90F6
:10236000DF90CF90BF90AF909F900895DF92EF9253
:10237000FF920F931F93CF93DF93CDB7DEB72B97C9
:102380000FB6F894DEBF0FBECDBF7A878B87F42ED1
:10239000052F162FE72ED82E61110E94EF191E82ED
:1023A0001D827E2DEC82DD824F2D502F612F8D2DD1
:1023B0009E812B960FB6F894DEBF0FBECDBFDF9186
:1023C000CF911F910F91FF90EF90DF900C941A170F
:1023D000FC01808191810C945B19CF93C82F8823D5
:1023E00069F18CEF8C0F813AA0F46C2F8091180169
:1023F000909119010E943F1B882329F08C2F0E9485
:1024000090190E94121A8C2F0E948919CF910C9456
:10241000121A80E28C0F883048F4C77081E001C046
:10242000880FCA95EAF70E94D219F0CFCD3E30F05E
:102430008C2F0E945407CF910C942708CF910895B8
:10244000882361F19CEF980F913A20F40E94901933
:102450000C94121A90E2980F983050F4877091E023
:1024600001C0990F8A95EAF7892F0E94D819F0CFF9
:102470009BE5980F933020F490E080E00C94A51039
:1024800098E5980F973120F490E080E00C94BB1011
:102490008D3E20F00E94AE070C94270808951F93EC
:1024A000CF93DF93182FEB010E94ED11209731F4A9
:1024B000812FDF91CF911F910C9420128FE99FE023
:1024C0000197F1F700C000002197F0CF70E060E0C5
:1024D000893311F460E570E00C944F12882321F0E9
:1024E0000E94D2190C94121A0895882321F00E9498
:1024F000D8190C94121A0895BF92CF92DF92EF92DE
:10250000FF920F931F93CF93DF936C01D62FC72FAA
:10251000FC011281058102950F700E94A719E82E17
:102520008823A1F0E12E112389F08C2F807F803445
:1025300029F080E28D0FE12C883040F082E00E948B
:10254000631A0E94A71991E0E82EE926BC2EB294E6
:102550009FE0B922FBE0FB1598F1EB2DF0E0E65689
:10256000FC4D0C9450230C2F0F70C07F11F002957E
:10257000007F1123A9F0002359F080E28D0F8830ED
:1025800010F0D11109C0802F0E94D2190E94121A96
:102590008D2F0E94ED1114C0802F0E94E219F6CFFA
:1025A0008D2F0E942012002359F080E28D0F883079
:1025B00010F0D1112CC0802F0E94D8190E94121A3D
:1025C0002B2D2850330B2430310520F40E9480102D
:1025D0000E941A03EE2009F472C10E94A31980FD23
:1025E0006EC1F60112820E949D190E942618C60132
:1025F0000E9480140E949D19DF91CF911F910F912D
:10260000FF90EF90DF90CF90BF900C944718802FF1
:102610000E94E819D3CF2C2F2F70F22EC07FC0322A
:1026200019F0F29480EFF822DD2369F0D13049F1FE
:10263000112391F1002351F1F601858180FFA8CF8C
:102640008F70858323C0112381F0011106C00E9481
:10265000F5198F290E946E12B3CF0130C1F70E9485
:10266000F5198F290E94FB19ABCF011106C00E94FA
:10267000081A8F2D0E947512A3CF013009F4A0CF44
:10268000F6CF112329F0063008F09ACF8F2DE2CF34
:10269000053008F095CFEDCF002359F3D93349F435
:1026A000FFEF27EE33E0F15020403040E1F700C06B
:1026B00000008D2F0E94201283CF8D2F112329F02F
:1026C0000E9454070E9427087BCF0E94AE07FACFD2
:1026D0008C2F837009F041C0111172CF4D2F42959C
:1026E00046954770440F440F0D2F0F7010E030E0F7
:1026F00020E0042E04C0000F111F221F331F0A9474
:10270000D2F760E070E0CB01D4FF0FC06FE070E063
:1027100080E090E004C0660F771F881F991F4A95DC
:10272000D2F76095709580959095C695C695C370C3
:10273000602B712B822B932BC23049F058F4C1309F
:1027400019F00E94D8173CCF0E94C61739CF0E94BB
:10275000EA1736CF0E94C41733CF8695112311F0A4
:102760008C2F8170882309F42BCF4D2F42954695ED
:102770004770440F440F0D2F0F7010E030E020E041
:10278000042E04C0000F111F221F331F0A94D2F71A
:1027900060E070E0CB01D4FF0FC06FE070E080E03C
:1027A00090E004C0660F771F881F991F4A95D2F7E3
:1027B0006095709580959095C695C695C370602B71
:1027C000712B822B932BC23049F058F4C13019F091
:1027D0000E949D18F5CE0E948B18F2CE0E94AF1871
:1027E000EFCE0E940018ECCECF70112329F08C2F71
:1027F0000E9426188D2F2ECF8D2F0E9475128C2FA0
:102800000E944718DDCED23F89F160F4D03FC9F075
:10281000D13F29F1112309F442C00111B9CE8C2F07
:102820008F7121C0D33F39F1D43FA1F7112369F152
:10283000CF718C2F0E94261863E08C2F0E94481ABB
:10284000BFCE112341F0053008F0BACE8C2F8F7126
:102850000E946A18B5CE063008F0B2CEF7CF8C2FA2
:102860008F71112369F20E942618AACE8C2F8F71C6
:102870001123C9F3C5CF112329F08C2F8F710E942A
:1028800011189ECE0E940C189BCE81E00E94631A04
:10289000023008F495CE82E00E94631A91CE0023A4
:1028A00059F0D93309F005CF8FEF97EEE3E081506F
:1028B0009040E040E1F7FBCE8C2F8F71A1CFDF91EC
:1028C000CF911F910F91FF90EF90DF90CF90BF902D
:1028D00008950F931F93CF93DF93EC016881798163
:1028E0008A810E9465198C010E94C1180E94C31739
:1028F000B801CE01DF91CF911F910F910C947C1202
:10290000CF93DF93EC018B819C81892B29F0888107
:10291000998189238F3F59F4DF91CF910895CE019A
:102920000E946914CE01DF91CF910C94A002CE01D8
:102930000E94C1028111F3CF0E94A719882361F37D
:102940008A81882349F382E0DF91CF910C94631A46
:102950000E94EF190E94F2190E94121A0E944E0959
:102960000C9427080E9497190C94A8140E94DF1950
:102970000C94B214E92FE295EF70E250EE3070F44F
:10298000F0E0EA55FC4D0C945023803F19F020F400
:10299000883E20F481E00895843FE1F380E00895CB
:1029A000883EC0F3813FD1F7F5CF93FB882780F9AC
:1029B00008950E945B190C94BA14CF93DF9300D052
:1029C00000D00F92CDB7DEB70F900F900F900F9001
:1029D0000F90DF91CF910895CF93DF9300D000D077
:1029E00000D0CDB7DEB726960FB6F894DEBF0FBE87
:1029F000CDBFDF91CF9108951F93CF93DF93C09107
:102A0000A40116E08091A5018C1304C0DF91CF9141
:102A10001F910895D0E01C9FF0011D9FF00D11241F
:102A2000EA55FE4F40815181628173818481958195
:102A30000E94EC142196C770E5CF4091D6015091C9
:102A4000D7016091D8017091D9018091DA019091FC
:102A5000DB010C94EC141F93CF93DF938091DB0187
:102A6000807FA9F48091D801882389F08091A40106
:102A7000C091A5016091D6017091D701A091D901B3
:102A8000B091DA01D62FD72316E0C81304C0DF9126
:102A9000CF911F91089590E0109711F0DF3F19F446
:102AA00001968770F2CF189F9001199F300D112465
:102AB000F901EA55FE4F41814713F2CF4081461399
:102AC000EFCF42814111ECCF438154814A1B5B0B14
:102AD0004436510528F78091DB018F708061809327
:102AE000DB01F901E555FE4F80818F7080618083A5
:102AF00086ED91E00E948014DF91CF911F910C949C
:102B0000FC14AF92BF92CF92DF92EF92FF920F939D
:102B10001F93CF93DF93CDB7DEB761970FB6F894CD
:102B2000DEBF0FBECDBF8C0185E0F801DE011D9632
:102B300001900D928A95E1F7F80140815181E28080
:102B400086EDC82E81E0D82E6091D9017091DA010E
:102B50006115710509F44FC19091D6012091D701FB
:102B6000892F82238F3F09F446C1A380B480F0905F
:102B7000D801F501E61BF70BFF2009F40AC180918B
:102B8000DB01382F307FE436F10508F0C0C0311189
:102B900079C0FE2C251323C0941321C0E1101FC05F
:102BA0008F7080618093DB010E941D15C6010E9419
:102BB00080148091DB01F80185838F2D61960FB61B
:102BC000F894DEBF0FBECDBFDF91CF911F910F9163
:102BD000FF90EF90DF90CF90BF90AF900895AB281B
:102BE00029F0842F85238F3F09F021C180E0F82F41
:102BF000F170DF2E80FF3CC08091A4012091A501DF
:102C000036E0821315C04D875E878D859E850E94B4
:102C10005B19292F22952F702230F0F0243018F5FF
:102C20009F70F1F0F8019581907FD1F4D12C1EC0F6
:102C300090E0389FF001399FF00D1124EA55FE4FC6
:102C40006181651306C06081641303C062816E11E7
:102C50000FC001968770D5CF9F7011F0882331F394
:102C6000805E883018F3C8010E948014FD2CA5CF27
:102C7000EE2009F4A2CF8091DB0181608093DB011B
:102C8000F12C9BCF251314C0941312C0E11010C077
:102C9000F8018583C8010E94801486E0F801A6ED42
:102CA000B1E001900D928A95E1F70E941D1585CF44
:102CB0004D875E878D859E850E94D914882319F1E2
:102CC000EE2009F18091DB01803270F02091D60175
:102CD0003091D70138872F831986BB86AA868C87C7
:102CE000CE0107960E94801486E0F801A6EDB1E0BF
:102CF00001900D928A95E1F70E942B150E941D15F7
:102D0000FF24F3945ACFC8010E948014F9CF3111E7
:102D100013C07A2DB98AA88A6E2D89890E94DD1484
:102D200086ED91E00E94801486E0F60111928A956A
:102D3000E9F70E941D15A4CF25130FC094130DC0F1
:102D4000E1100BC0F8018583C8010E94801486E061
:102D5000F60111928A95E9F730CF4D875E878D8510
:102D60009E850E94D914882371F2EE2061F2809131
:102D7000DB01803208F4B8CF2091D6013091D70121
:102D80003A8329831B82BD82AC828E83CE01019659
:102D9000A9CFE436F10510F5FE2CEE2009F4B3CFEF
:102DA00025130BC0941309C086E0F801A6EDB1E02D
:102DB00001900D928A95E1F700CF4D875E878D8552
:102DC0009E850E94D91481118FCF8091DB01816093
:102DD0008093DB01C8010E948014EFCE7A2DB98A5E
:102DE000A88A6E2D89890E94DD1486E0F601119271
:102DF0008A95E9F75ACFEE2009F485CF4D875E8793
:102E00008D859E850E94D914F82E882309F47BCFE6
:102E100086E0F801A6EDB1E001900D928A95E1F708
:102E200086ED91E00E94E8110E942B153ECF81E0D3
:102E30008E25DDCE1F93CF93DF93CDB7DEB72C97D2
:102E40000FB6F894DEBF0FBECDBF4F83588769879A
:102E50007A878B879C87CE0107960E9481158823ED
:102E600069F08A859B85892B39F04F815885842F9D
:102E700085238F3F09F071C016E05FC086E0FE0138
:102E80003796DE01119601900D928A95E1F78A85B9
:102E90009B85892B89F38F81988589238F3F61F3E7
:102EA0002091A50130E0C9010196877099274091D2
:102EB000A4014817190671F40E94B6141092A501D6
:102EC0001092A40186E0E6EDF1E0DF011D928A9503
:102ED000E9F7D2CF96E0929FD001939FB00D1124D5
:102EE000AA55BE4FFE01319601900D929A95E1F7D9
:102EF0008093A5010E94FC14BFCF819FC0011124C3
:102F00008A559E4F0E9481158823E9F0E091A40123
:102F10001E9FF0011124EA55FE4F408151816281CC
:102F20007381848195810E94EC148091A40190E0CA
:102F30000196877099278093A4018091A4019091B4
:102F4000A5018913DACF2C960FB6F894DEBF0FBE19
:102F5000CDBFDF91CF911F91089569857A858B85CB
:102F60009C850E94EC1488CF08950C94B4170E949D
:102F7000B517609308027093090280930A02909338
:102F80000B020C94A81408950C94B7170F931F9379
:102F9000009108021091090220910A0230910B025F
:102FA000602B712B822B932B1F910F910C94B717D1
:102FB0000F931F93009108021091090220910A02B9
:102FC00030910B0260237123822393231F910F9171
:102FD0000C94B7170F931F930091080210910902E8
:102FE00020910A0230910B026027712782279327D4
:102FF0001F910F910C94B7170C94B4170C94FC17F5
:103000000E94FE17609304027093050280930602EB
:10301000909307020C94A81460E070E0CB010C942C
:1030200000180F931F9341E050E060E070E08A01C8
:103030009B0104C0000F111F221F331F8A95D2F776
:10304000C901B8011F910F910C9400180F931F93A1
:1030500041E050E060E070E004C0440F551F661F7F
:10306000771F8A95D2F78091040290910502A09172
:103070000602B09107028A019B01082B192B2A2B0B
:103080003B2BC901B8011F910F910C9400180F93AD
:103090001F9341E050E060E070E004C0440F551F12
:1030A000661F771F8A95D2F7CB01BA01609570959C
:1030B00080959095009104021091050220910602DE
:1030C0003091070260237123822393231F910F9174
:1030D0000C9400180F931F9341E050E060E070E003
:1030E00004C0440F551F661F771F8A95D2F7809141
:1030F000040290910502A0910602B09107028A0194
:103100009B01082719272A273B27C901B8011F91CE
:103110000F910C9400180F931F93009104021091CB
:1031200005022091060230910702602B712B822B41
:10313000932B1F910F910C9400180F931F930091E4
:1031400004021091050220910602309107026023CB
:103150007123822393231F910F910C9400180F93D6
:103160001F930091040210910502209106023091F4
:10317000070260277127822793271F910F910C94D4
:1031800000180895E92FEE0FE90FEE0F8E0F982F1C
:10319000977041E001C0440F9A95EAF786958695AD
:1031A000869595E0899FF0011124E452FE4F30E0AE
:1031B00020E070E05191DF011197CB01022E02C097
:1031C000969587950A94E2F78170819585278423E7
:1031D00085278C932F5F3F4F2530310559F7089590
:1031E000E92FEE0FE90FEE0F8E0F982F977086954F
:1031F0008695869525E0829FF0011124E452FE4FCA
:1032000050E040E080E0219130E0092E02C0369588
:1032100027950A94E2F721703327042E01C0220F6C
:103220000A94EAF7822B4F5F5F4F4530510559F7FB
:103230000895BF92CF92DF92EF92FF920F931F9368
:10324000CF93DF938C01C0900402D0900502E090F0
:103250000602F09007028091080290910902A09165
:103260000A02B0910B02C82AD92AEA2AFB2ACFE126
:10327000D0E0BC2ED701C6010C2E04C0B695A79590
:10328000979587950A94D2F780FD0EC0219788F70D
:10329000B12C8B2DDF91CF911F910F91FF90EF906B
:1032A000DF90CF90BF900895B8018C2F0E94360315
:1032B000019761F3EECFCF93DF93EC010E941919D0
:1032C000BE01DF91CF910C9436031F93CF93DF9310
:1032D000EB019091A301992331F0CB01DF91CF91C4
:1032E0001F910C945B19882379F0CB010E94191966
:1032F000182F682FCE010E94C218BE01812FDF91C6
:10330000CF911F910C943603CB010E94F018182F17
:10331000F4CF682F80911801909119010C94751BBE
:10332000682F80911801909119010C94771B80915E
:103330001801909119010C94791B80910C028595CC
:1033400085958595089580910C02877008959091D8
:103350000C02977081E009F480E0089590912602B4
:1033600092FB222720F9281751F080FB92F99093C5
:10337000260280912502909126020C94A21A0895AB
:103380008091260282FB882780F991E089270C949E
:10339000AE1981E00C94AE1980E00C94AE198091C6
:1033A0001802089590911802892B809318020895AD
:1033B0008095909118029823909318020895109286
:1033C0001802089590911702892B8093170208958F
:1033D0008095909117029823909317020895109268
:1033E0001702089510921602089580910D02089513
:1033F00008950C94F8199091260292FD08C09091BE
:103400000D02981721F080930D020C94F91908957C
:1034100080910D02882329F010920D0280E00C9417
:10342000F9190895E0911801F0911901809118029D
:103430008083E0911801F091190180819091170229
:10344000892B8083E0911801F0911901808190917E
:103450001602892B808390910D02992381F0E091CF
:103460001801F09119018081892B808380911801C6
:10347000909119010E942D1B81110E94081A8091C0
:103480001801909119010C948C1008950C94451A10
:103490009091260292FD10C098E0899F900111241E
:1034A000622B60930C020E94261880910C02859575
:1034B000859585950C94461A0C94261810920C024A
:1034C00080E00C94461A90910C0280958923809399
:1034D0000C02282F277039F4282F082E000C330BEC
:1034E0009217130621F49091260292FF07C085954A
:1034F000859585950E9447180C945E1A089580E082
:10350000089590E080E00E945E2321E08A3E9E4F75
:1035100009F020E0822F089582E090E00C94562379
:1035200083E090E00C945623CF9384E090E00E94D7
:103530005623C82F82E290E00E945623982F8C2FAA
:10354000CF910895CF93C92F682F84E090E00E9417
:1035500064236C2F82E290E0CF910C946423AB0142
:10356000BC018FE090E00C947623AB01BC0183E1B9
:1035700090E00C94762360E070E0CB010C94B51AD7
:1035800060E070E0CB010E94AF1A0C94BB1A6AEEA7
:103590007EEF90E080E00E94822360E082E090E095
:1035A0000E94642360E083E090E00E946423109214
:1035B00008021092090210920A0210920B0260E0B7
:1035C00084E090E00E94642360E082E290E00E9448
:1035D000642360E085E090E00E94642360E086E080
:1035E00090E00E9464236FEF87E090E00E946423E4
:1035F00040E050E0BA0188E090E00E94762360E06D
:103600008DE090E00E94642340E050E0BA0188E140
:1036100090E00E94762360E087E190E00E946423BE
:1036200040E050E0BA018CE190E00E94762370E027
:1036300060E080E290E00E94822340E050E0BA0126
:1036400088E190E00E9476230C94C01A0C94C71A6B
:10365000682F8EE090E00C9464239C012E5F3F4F16
:10366000AC01485F5F4F80E02417350709F40895E7
:10367000F90191919F019923B9F38F5FF5CF6623EB
:1036800049F0FC01329608962191261729F0E81797
:10369000F907D1F780E0089581E008959C01FC01CD
:1036A00032969FEF80E04191461751F09F3F19F409
:1036B000411101C0982F8F5F8630A9F79F3F09F411
:1036C0000895290F311D97FD3A95F90162830895F8
:1036D000FC01329608962191261303C0DF01119751
:1036E0001C92E817F907B9F708950C944E1B0C9437
:1036F000681B029626E0FC0111922A95E9F70895CD
:10370000089508950C94811B80915104843049F1EF
:103710000E94821B80E00E941A0310921A0288E124
:1037200090E020E40FB6F894A895809360000FBE57
:103730002093600083B7817F846083BF83B78160FB
:1037400083BF7894889583B78E7F83BF0FB6F89434
:10375000A89580916000886180936000109260005D
:103760000FBE08950895CF930E94801B0E94ED051F
:103770000E94B21BC0E08C2F0E941305811105C06E
:10378000CF5FCA30C1F7CF91089581E0FCCF089593
:103790000C94C71B0E94B6140E9480100E941A034A
:1037A0000C94C81B1F921FB61F9211248F939F93D6
:1037B000AF93BF9380911A02811113C08091450489
:1037C00090914604A0914704B09148044196A11DF0
:1037D000B11D8093450490934604A0934704B09391
:1037E0004804BF91AF919F918F911F901FBE1F9072
:1037F000189582E084BD93E095BD9AEF97BD8093C4
:103800006E0008952FB7F894809145049091460476
:10381000A0914704B09148042FBF08952FB7F894A2
:10382000609145047091460480914704909148044A
:103830002FBF08959C014FB7F89480914504909153
:103840004604A0914704B09148044FBF821B930BDC
:10385000089578941F921FB61F9211248F939F93FF
:10386000AF93BF938091450490914604A091470483
:10387000B09148040196A11DB11D80934504909319
:103880004604A0934704B0934804BF91AF919F9121
:103890008F911F901FBE1F9018951092490410928F
:1038A0004A0410924B0410924C040895CF92DF9278
:1038B000EF92FF926B017C010E94A60681110EC05F
:1038C0000E940E1CC61AD70AE80AF90AC0924904D7
:1038D000D0924A04E0924B04F0924C04FF90EF9097
:1038E000DF90CF9008950F931F930E94A606882320
:1038F00021F01F910F910C940E1C0E940E1C009140
:10390000490410914A0420914B0430914C04600FFB
:10391000711F821F931F1F910F91089587E797E7EB
:10392000909301088093000888E19AE00FB6F8941C
:10393000A895809360000FBE90936000FFCF909396
:103940003F0180933E0108958091230208950895D8
:103950009C0182E08093E9009FEF8091E800915004
:1039600085FD06C085ED8A95F1F700009111F5CF30
:103970008091E80085FF0CC050E040E066E070E018
:10398000C9010E94851E8091E8008E778093E8002F
:103990000895CF93DF93EC0181E08093E9008FEFEE
:1039A0009091E800815095FD06C095ED9A95F1F74C
:1039B00000008111F5CF8091E80085FF14C050E030
:1039C00040E068E070E0CE010E94851E8091E80032
:1039D0008E778093E80088E0FE01ABE1B2E00190D1
:1039E0000D928A95E1F7DF91CF9108950895809126
:1039F0005004811109C00E9415200E9472208091FC
:103A0000E20084608093E2000895109250040895CB
:103A100008950895089542E061EC81E00E94911FAD
:103A200042E261EC82E00C94911F80915304833058
:103A300009F45FC030F48130C1F1823009F49BC0D9
:103A400008958A3009F487C08B3009F46DC089303D
:103A500009F04EC080915204813209F049C0809132
:103A6000560490915704029708F042C08091E800F4
:103A7000877F8093E8008091E80082FF35C09091B5
:103A8000F3008091F200029729F48091F1008B7F7E
:103A9000813021F48091F100809323028091E8002D
:103AA0008B778093E8000C94C51F80915204813A73
:103AB000F9F48091E800877F8093E80080915604B4
:103AC00090915704892B61F468E08BE192E070E0FB
:103AD0000E94D41E8091E8008B778093E8000895BF
:103AE00060E090E080E0F3CF809151048111C3CF7A
:103AF000089580915204813AD9F7809156049091AB
:103B00005704892BA9F78091E800877F8093E8000C
:103B10008091E80080FFFCCF809124018093F10028
:103B20008091E8008E77BDCF80915204813201F7F9
:103B30008091560490915704892BD1F68091E8002A
:103B4000877F8093E8000E94C51F80915404809372
:103B500024010C94B61480915204813249F680916C
:103B6000E800877F8093E8000E94C51F809155047C
:103B700080932402089580915204813A09F0B8CFCD
:103B80008091E800877F8093E8008091E80080FFC3
:103B9000FCCF80912402C2CF84B7877F84BF0FB649
:103BA000F894A895809160008861809360001092DD
:103BB00060000FBE80E890E00FB6F894809361003B
:103BC000909361000FBE0E94F2100E9415200E9487
:103BD00072208091E20084608093E20078940E94D9
:103BE000FB220E9404118AE191E00E947B108091E7
:103BF0005104853099F00E940F110E940011F7CFF7
:103C00000E94841B80914F04882341F00E94B31BC3
:103C1000882321F00E946F1E0E94B61480915104E7
:103C2000853071F30E94CA1BE6CF0C94171E292F12
:103C300033272330310519F168F42130310509F4B7
:103C400044C02230310509F445C090E080E030E006
:103C500020E025C02132310549F122323105A9F792
:103C600080E490E024EE33E061157105C1F089E451
:103C700090E02BE933E06130710589F0E6CF9927B8
:103C80008130910581F0009729F00297F1F6E8E282
:103C9000F3E002C0EAE4F3E0849190E09F01FA01CE
:103CA000318320830895E8E3F3E0F6CF89E090E0E4
:103CB00020E633E06115710591F389E090E029E792
:103CC00033E06130710559F3C0CF82E190E029E81B
:103CD00033E0E5CF8BE390E02EE433E0E0CF80E10A
:103CE00089BD82E189BD09B400FEFDCF8091D80075
:103CF0008F7D8093D8008091E00082608093E00007
:103D00008091E00081FDFCCF0895AF92BF92CF92E9
:103D1000DF92FF920F931F93CF93DF936C01EB0120
:103D20008A010E94E41FF82E811123C0011511059C
:103D300039F0F80180819181C81BD90BC80ED91EBA
:103D4000B12CA12C2097A9F08091E80085FD22C01C
:103D50008091E8008E778093E80001151105A1F0AD
:103D6000F80180819181A80EB91EB182A08285E000
:103D7000F82E8F2DDF91CF911F910F91FF90DF9043
:103D8000CF90BF90AF9008950E94E41F8823D1F296
:103D9000F82EEFCFF60181916F018093F10021970A
:103DA000FFEFAF1ABF0ACECFFC018091580490916B
:103DB000590486179707A0F06115710529F49091B1
:103DC000E8009E779093E80090E06115710551F44A
:103DD000911108C08091E80082FF34C080E008950E
:103DE000BC01F2CF809151048823C1F18530C1F12B
:103DF0008091E80083FD30C08091E80082FDEACF29
:103E00008091E80080FFE1CF8091F3002091F200E3
:103E1000382F6115710519F02830310558F091E0FF
:103E20002830310509F090E02091E8002E772093AA
:103E3000E800CBCF81918093F100615071092F5F31
:103E40003F4FE7CF80915104882341F0853041F006
:103E50008091E80083FFBECF81E0089582E008955D
:103E600083E00895FC0180915804909159048617CD
:103E70009707A0F06115710529F48091E8008E770D
:103E80008093E80090E06115710551F4911108C02C
:103E90008091E80082FF35C080E00895BC01F2CF38
:103EA000809151048823C9F18530C9F18091E800DF
:103EB00083FD31C08091E80082FDEACF8091E80067
:103EC00080FFE1CF8091F3002091F200382F61153F
:103ED000710519F02830310558F091E0283031058E
:103EE00009F090E08091E8008E778093E800CBCFD6
:103EF00084918093F1003196615071092F5F3F4F9B
:103F0000E6CF80915104882341F0853041F08091C3
:103F1000E80083FFBDCF81E0089582E0089583E04B
:103F20000895982F973028F08F708093E90081E0F2
:103F300008959093E900242F762F50E0981731F0E0
:103F40007091EC002091ED005091F00021FD02C035
:103F50009F5FE8CF3091EB003E7F3093EB003091D4
:103F6000ED003D7F3093ED003091EB0031603093F8
:103F7000EB007093EC002093ED005093F000209143
:103F8000EE0027FDE5CF80E008958091520487FF81
:103F900013C08091E80082FF06C08091E8008B7713
:103FA0008093E80004C0809151048111F2CF0895FC
:103FB000809151048823D9F38091E80080FFF8CFE5
:103FC0008091E8008E77ECCF2091E4003091E500FD
:103FD00095E6A9012091EC00822F817020FF06C098
:103FE0008091E80080FF06C080E008952091E800FD
:103FF00022FD1AC080915104882389F0853089F010
:104000008091EB0085FD0FC02091E4003091E50028
:1040100042175307F9F29150E1F684E0089582E0E7
:10402000089583E0089581E008950E9483200E940E
:104030008B20E0EEF0E0808181608083E8EDF0E0AD
:1040400080818F77808319BCA7EDB0E08C918E7F43
:104050008C9380818F7E80831092500408950F93FB
:104060001F93CF93DF930E9483200E948B20C8ED83
:10407000D0E088818F778883888180688883888171
:104080008F7D888319BC1092510410924D041092B8
:104090004F0410924E0400EE10E0F80180818B7FF7
:1040A000808388818160888342E060E080E00E94B4
:1040B000911FE1EEF0E080818E7F8083E2EEF0E000
:1040C000808181608083808188608083F801808125
:1040D0008E7F8083888180618883DF91CF911F915B
:1040E0000F910895E8EDF0E080818F7E8083E7ED09
:1040F000F0E080818160808384E082BF81E08093F2
:1041000050040C942F20E8EDF0E080818E7F8083B6
:104110001092E20008951092DA001092E1000895E2
:104120001F920F920FB60F9211242F933F934F932C
:104130005F936F937F938F939F93AF93BF93EF930F
:10414000FF938091E10082FF0BC08091E20082FF2B
:1041500007C08091E1008B7F8093E1000E94FA22EA
:104160008091DA0080FF19C08091D80080FF15C0CF
:104170008091DA008E7F8093DA008091D90080FFF1
:1041800096C080E189BD82E189BD09B400FEFDCF02
:1041900081E0809351040E94F71C8091E10080FF30
:1041A00019C08091E20080FF15C08091E2008E7FEF
:1041B0008093E2008091E20080618093E200809130
:1041C000D80080628093D80019BC85E080935104A8
:1041D0000E94091D8091E10084FF2BC08091E200C4
:1041E00084FF27C080E189BD82E189BD89B5982F10
:1041F000917080FFFBCF8091D8008F7D8093D80095
:104200008091E1008F7E8093E1008091E2008F7EBB
:104210008093E2008091E20081608093E2008091CF
:104220004D04882309F449C084E0809351040E941E
:104230000A1D8091E10083FF29C08091E20083FF85
:1042400025C08091E100877F8093E10082E0809328
:10425000510410924D048091E1008E7F8093E10023
:104260008091E2008E7F8093E2008091E200806185
:104270008093E20042E060E080E00E94911F809124
:10428000F00088608093F0000E94081DFF91EF917C
:10429000BF91AF919F918F917F916F915F914F915E
:1042A0003F912F910F900FBE0F901F90189519BC42
:1042B000109251040E94051D70CF8091E30087FD8C
:1042C00093E090935104B3CF1F920F920FB60F92C9
:1042D00011242F933F934F935F936F937F938F930B
:1042E0009F93AF93BF93CF93DF93EF93FF93D091BF
:1042F000E900DF708091EC00C82FC17080FDC0E83C
:104300001092E9008091F000877F8093F00078940C
:104310000E94A8211092E9008091F00088608093AB
:10432000F000CD2BCF70C093E900FF91EF91DF91AA
:10433000CF91BF91AF919F918F917F916F915F913D
:104340004F913F912F910F900FBE0F901F90189596
:104350001F93CF93DF93CDB7DEB7AA970FB6F8942C
:10436000DEBF0FBECDBF82E594E02091F100FC01DD
:104370002193CF01F4E08A359F07B9F70E94151DFC
:104380008091E80083FF1EC18091520490915304F4
:104390009A3008F017C1E92FF0E0EC54FC4D0C9472
:1043A0005023803899F0823809F00CC1809156046E
:1043B0008F70873008F006C18093E9008091EB0090
:1043C00085FB882780F91092E90006C080914E0491
:1043D00090914F04911182609091E800977F9093A3
:1043E000E8008093F1001092F1008091E8008E7750
:1043F000E5C0882309F4D3C0823009F0E3C080917E
:1044000054048111D6C0809156048F702FEF280F6D
:10441000263008F0D7C08093E9002091EB0020FF00
:10442000C8C0933031F48091EB0080628093EB0040
:10443000C0C09091EB0090619093EB0021E030E0E0
:1044400001C0220F8A95EAF72093EA001092EA0051
:104450008091EB008860EACF8111B4C010915404C0
:104460001F778091E3008078812B8093E300809117
:10447000E800877F8093E8000E94C51F8091E800D4
:1044800080FFFCCF8091E30080688093E30082E0AE
:10449000111183E08093510495C08058823008F058
:1044A00091C080915404909155048C3D23E0920773
:1044B000A1F583E08A838AE289834FB7F894DE010D
:1044C000139620E03EE051E2E32FF0E050935700D6
:1044D000E49120FF03C0E295EF703F5FEF708E2FF5
:1044E00090E0EA30C0F0C7968D939D932F5F243102
:1044F00059F74FBF8091E800877F8093E8006AE218
:1045000070E0CE0101960E94D41E8091E8008B7766
:104510008093E80057C0C096E7CF60915604709131
:104520005704AE014F5F5F4F0E94151EBC01892BDF
:1045300009F448C09091E800977F9093E800898142
:104540009A810E94321FE1CF8038E1F58091E80026
:10455000877F8093E80080914D048093F10045CFE0
:10456000811130C090915404923060F58091E80040
:10457000877F8093E80090934D040E94C51F80912F
:104580004D04882311F084E005C08091E30087FD8D
:10459000FACF81E0809351040E940B1D13C08091DB
:1045A0005404813079F481E0933009F080E0809305
:1045B0004F041092E9008091E800877F8093E80023
:1045C0000E94C51F8091E80083FF0AC08091E80027
:1045D000877F8093E8008091EB0080628093EB00FE
:1045E000AA960FB6F894DEBF0FBECDBFDF91CF9174
:1045F0001F9108950895CF93809151048823A1F0CD
:10460000C091E900CF709091EC00892F817090FDEE
:1046100080E8C82B1092E9008091E80083FD0E9499
:10462000A821CF70C093E900CF9108950E94152072
:10463000109251040895E8EDF0E08081806180835C
:104640008AE18A95F1F700C08091D90081700895C0
:10465000AA1BBB1B51E107C0AA1FBB1FA617B707A8
:1046600010F0A61BB70B881F991F5A95A9F78095C4
:104670009095BC01CD01089597FB072E16F4009488
:1046800007D077FD09D00E94282307FC05D03EF40F
:10469000909581959F4F0895709561957F4F0895EE
:1046A000EE0FFF1F0590F491E02D0994F999FECFCC
:1046B00092BD81BDF89A992780B50895A8E1B0E030
:1046C00042E050E00C948A23262FF999FECF92BD48
:1046D00081BDF89A019700B4021639F01FBA20BDC7
:1046E0000FB6F894FA9AF99A0FBE08950396272FF9
:1046F0000E9465230E946423252F0E946523242F96
:104700000C9465230196272F0E9465230C94642343
:10471000DC01CB01FC01F999FECF06C0F2BDE1BD81
:10472000F89A319600B40D9241505040B8F7089570
:10473000F894FFCFB312B3120B130B13E0125D13F7
:10474000E012E0126813F41303140314C514C51423
:10475000CE14CE14D014CE14CE14CE14C514C51459
:10476000D514CE14CE14D514D121F921E222F92189
:0C477000E2222C224D22E222A422B022E0
:10477C00012808641E140A321E0021007F22000347
:10478C007D01047E010582010E02A41CC91CA81C1B
:10479C00A71CF61C01F6F7313332366697C6343552
:0E47AC0000000000000008101818100800009F
:00000001FF
