:100000000C94C9010C9410020C9410020C94BA0CBC
:100010000C9410020C9410020C9410020C94100218
:100020000C9410020C9410020C940C1E0C94DE1E06
:100030000C947B190C9410020C9410020C94100276
:100040000C9410020C9410020C9410020C941002E8
:100050000C9410020C94D4190C9410020C941002FD
:100060000C9410020C9410020C9410020C941002C8
:100070000C9410020C9410020C9410020C941002B8
:100080000C9410020C9410020C9410020C941002A8
:100090000C9410020C9410020C9410020C94100298
:1000A0000C9410020C9410020C941002FA0FFA0F28
:1000B0002C102C10821182118211821179101211D0
:1000C0002311231116121612281228121F12281299
:1000D000281228121612161224122812281224127C
:1000E0004B1F721F6A20721F6A20BE1FE11F6A2009
:1000F0003820472029001E001F0020002100220078
:100100002B0014001A00080015001700E00004007E
:100110001600070009000A00E2001D001B0006008F
:100120001900050000000251E300E1002C002F003F
:100130003500270026002500240023002D00130091
:1001400012000C0018001C00340033000F000E00D9
:100150000D000B00E70038003700360010001100DA
:10016000000001512A00E5002800300001000100D4
:1001700001000100010001003A003B003C003D008D
:100180003E003F0035001E021F0220022102220213
:100190000100010001000100010001000000010058
:1001A0000100010001000100010001000100010047
:1001B00001000100450044004300420041004000AE
:1001C00035022702260225022402230231023002D0
:1001D0002F022E022D020000000003510100390001
:1001E0000100010001000100010001000100010007
:1001F00035001E001F002000210022003A003B00B5
:100200003C003D003E003F004000410042004300F2
:1002100044004500000001000100035101000100FD
:1002200001000100010001000100010001002700A0
:100230002600520024002300000025004F0051003A
:1002400050000000310030002F002E002D002E0243
:10025000000001004C00010001000100000000004E
:10026000000000000000000000000000000000008E
:10027000000000000000000000000000000000007E
:10028000000000000000000000000000000001006D
:10029000010001000100000000000000000000005B
:1002A000000000000000000000000000000000004E
:1002B000000000000000000000000000000000003E
:1002C000000000000000000000000100010001002B
:1002D0000100000000AE00AF00DA0281FFD9F1DBBF
:1002E00020A4A62EAF00A0C000A1C800AED580A853
:1002F0001FD300408D1420000E034C0069006C00D9
:10030000790035003800000010036C0069006C00B3
:10031000690075006D007300000004030904090200
:100320002200010100A0FA090400000103010100FC
:100330000921110100012240000705810308000A7C
:100340001201100100000008D8042DEB0001010289
:10035000000105010906A101050719E029E71500BB
:100360002501950875018102950175088101050730
:10037000190029FF150026FF009506750881000564
:1003800008190129059505750191029501750391DB
:1003900001C011241FBECFEFDAE0DEBFCDBF04B62F
:1003A00003FE27C08091450490914604A091470424
:1003B000B09148048730904BA740B04BD1F41092D5
:1003C000450410924604109247041092480414BE4B
:1003D00084B7877F84BF0FB6F894A895809160009A
:1003E000886180936000109260000FBEE0E0F8E347
:1003F000099511E0A0E0B1E0E4EFF1E402C005905E
:100400000D92A633B107D9F724E0A6E3B1E001C00D
:100410001D92A534B207E1F70E94591B0C94F820F5
:100420000C9400000C94160281E0089581E0089578
:1004300008950C9418021F93CF93DF9300D000D03F
:100440001F92CDB7DEB749835A836B8330918E01FB
:1004500089819A81311114C0662359F0222349F011
:100460000E94D416182F682F89819A810E947B16CA
:1004700003C00E94A716182F69817A81812F04C0BA
:100480000E94D41669817A810F900F900F900F907F
:100490000F90DF91CF911F910C94DA02FC01262F6F
:1004A000408151816281738184810C941B02CF93BE
:1004B000DF93EC0160E00E944E02BE01DF91CF911C
:1004C0000C9419020E94A3040C94DD040C94D9042A
:1004D00008950E9404120E9468022FEF84E39CE0BA
:1004E000215080409040E1F700C000000C943B1A7E
:1004F0000F931F93CF93DF938C0161E00E944E0214
:10050000EC01B8010E9412028823F1F1B801CE017A
:100510000E941F098823C1F1B801CE010E94710910
:10052000882391F1B801CE010E949C0A882361F1D1
:10053000F8018281882309F1CB358DE5D807C1F018
:1005400050F4C115FCE5DF0781F0CF3DDC45A9F48F
:100550000E94D21819C0CC35EDE5DE0761F0CD352B
:10056000DD4559F40E94671708C00E9469020CC05B
:100570000E94701702C00E947317C801DF91CF91CB
:100580001F910F910C94140280E0DF91CF911F9185
:100590000F91089508950C94CA0281E008950C9477
:1005A000CD02CF93C82F0E94CB028C2F0E94CF0286
:1005B000CF9108952CE3829FC0011124FC0126E015
:1005C000729FE00DF11D1124E60FF11DEE0FFF1FCC
:1005D000EC50FF4F859194910895CF93DF930E9443
:1005E000DA020E94CB03EC01811523E5920798F50E
:1005F000811542E5940708F094C0C11580E2D80740
:10060000C0F4C11521E0D20708F0C1C0C53AD10538
:1006100048F4C430D10508F0BAC0C130D10509F49E
:10062000B6C0B3C0CE01805E9109089708F4AFC090
:10063000ACC0C11541E5D40708F06EC0C11580E516
:10064000D80708F04DC0C11520E4D20708F49DC0BA
:10065000DF70D06A9CC0811546E5940700F5C1158E
:1006600085E5D80708F077C0C11524E5D20708F062
:100670006DC0CE018370992721E030E002C0220FC7
:10068000331F8A95E2F78C2F8695869540E2849FEA
:10069000C0011124E901C82BD92BDA6878C0811573
:1006A0004AE5940778F4C11589E5D80708F05DC0DC
:1006B000C11528E5D20708F468C0DC2FCC27C06F2D
:1006C000D06A65C090568115904208F05EC08D2FAB
:1006D0008F710E945F04DD27D0628F71D82B57C0C5
:1006E000CE0174E0969587957A95E1F783709C2FFB
:1006F000937021E030E002C0220F331F9A95E2F799
:100700003C68382BCF70C695C69580E2C89FE00143
:100710001124C22BD32B3BC0DC2FCC27C16FD06A56
:1007200036C08370992721E030E002C0220F331FCA
:100730008A95E2F78C2F8695869540E2849FC001CA
:100740001124E901C82BD92BDC6821C0DC2FCC2770
:10075000C46FD06A1CC08C2F0E945F048F71C82F99
:10076000D0E0DC2FCC27D06212C08C2F8F700E947B
:100770005F0494E0D695C7959A95E1F7CF70D0E0E5
:10078000DC2FCC27D069C82B02C0C0E0D0E0CE015E
:10079000DF91CF9108958238910569F1B0F48133EA
:1007A000910509F46DC048F48932910509F463C0DC
:1007B0008A32910509F469C008958533910509F4D9
:1007C00055C089339105B9F00895833E910569F1CB
:1007D00038F4803E9105B1F0823E910509F108950B
:1007E000863E9105A9F1873E9105B9F1843E9105B8
:1007F00009F064C023C02091100220FD4FC021FDEC
:100800004DC008958091100280FD44C08091110276
:1008100080FF44C08091100284FD42C083EE4DC031
:100820008091100282FF38C0F5CF8091100282FDC6
:1008300033C08091110280FD31C0ECCF8091110254
:1008400081FF32C08091100284FD2AC087EE35C03E
:100850008091100283FF26C0F5CF8091100283FDA6
:1008600021C08091110281FD1FC0ECCF8091100248
:1008700085FD1CC01DC08091100285FD19C016C0E9
:100880008091100286FD16C017C08091100286FD6F
:1008900013C010C089E311C082EE0FC080EE0DC0FE
:1008A00080E00BC086EE09C084EE07C089E205C077
:1008B00085E303C08AE201C081E390E0089590914E
:1008C000100292FF0DC0282F2871283019F4877F5D
:1008D000846006C0282F2471243011F48B7F886037
:1008E00093FF0DC0282F2871283119F4877E846169
:1008F00006C0282F2471243111F48B7E8861209149
:10090000110220FF0DC0382F3871383019F4877F5D
:10091000816006C0382F3171313011F48E7F8860CC
:1009200021FF0DC0282F2871283119F4877E81619D
:1009300006C0282F2171213111F48E7E886194FD2B
:10094000877E089508950E942A18811102C00E948E
:10095000D2180E943518809304020E943D1890938B
:100960001102809310020E94A2040E943918682F7D
:1009700070E080E090E00E947D156091EF01709141
:10098000F0018091F1019091F2010C94B515E82FDE
:10099000F0E0E45EFD4F80810895089580EA8A9535
:1009A000F1F7089500C008950C94CE0408950C94B6
:1009B000D6040C94D7040C94D6040C94DB04F8945D
:1009C000E82FE295EF70F0E031A1282F2F7081E041
:1009D00090E001C0880F2A95EAF7982F909593230D
:1009E00091A392A1892B82A37894089508950C94E1
:1009F000F6040F931F93CF93DF930E94820680919A
:100A0000000180910001811102C095E001C090E0D9
:100A10009093270285E0891B8093260286E60E9438
:100A2000DF0487E90E94DF0486EC0E94DF0484E390
:100A30000E94DF0485E30E94DF04CDE1D1E003E200
:100A400011E089910E94DF040C171D07D1F7E2E144
:100A5000F2E0ACE1B2E011921D9282E0EC31F807D5
:100A6000D1F785E00E9431060E946202DF91CF91AA
:100A70001F910F910C948C060F931F93CF93DF93CC
:100A800000D000D01F92CDB7DEB70E9468066091FB
:100A90002702882309F442C08E010F5F1F4F85E0B3
:100AA000F80111928A95E9F7862F90E0B801845EEB
:100AB0009D4F0E94D90A811116C0809138018F5F25
:100AC00080933801863030F1E0912602F0E0E45E58
:100AD000FD4FD801CE01069611921D92A817B907B5
:100AE000D9F711E018C010923801A0912602B0E0A9
:100AF000A45EBD4FF8019E012A5F3F4F10E0819137
:100B00009C91981711F08C9311E01196E217F3075E
:100B1000B1F701C010E00E9466020DC070E0645E93
:100B20007D4F8091260290E0845E9D4F0E94050BD0
:100B30000E94F70410E0812F0F900F900F900F90FC
:100B40000F90DF91CF911F910F9108958F929F92F7
:100B5000AF92BF92CF92DF92EF92FF920F931F93CB
:100B6000CF93DF9383E2A82E81E0B82EC2E1D2E0DA
:100B700098E2E92E91E0F92E912C01E010E0650158
:100B8000F5018081F894E82FE295EF70F0E021A163
:100B90008F70A80102C0440F551F8A95E2F7CA0161
:100BA000922F982B91A392A18095892382A3789468
:100BB0000E94D204EDE1F1E020E030E0812C41918F
:100BC000A42FA295AF70B0E090968C9190E04F70FA
:100BD00002C0959587954A95E2F780FD07C0802F62
:100BE000022E01C0880F0A94EAF701C080E0882A2B
:100BF0002F5F3F4F2630310511F75FEFA51AB50A79
:100C0000F60180810E94DF040E94D4048881881646
:100C100019F0888281E001C080E0982A2196EA14C8
:100C2000FB0409F0ACCF6091270270E0645E7D4F59
:100C3000292D45E082E192E00E9432060E943C05A7
:100C4000992011F081E090E0DF91CF911F910F91F9
:100C5000FF90EF90DF90CF90BF90AF909F908F90DC
:100C600008950895FF920F931F93CF93DF938C0104
:100C7000F62ED72FC42F222349F081E080933B0129
:100C80000E94AD1990933A018093390180913B0104
:100C90008823C1F08091390190913A010E94C519D1
:100CA000069780F0EF2DFD2FD8014C2F50E0CD019D
:100CB000801B910B841795071CF48D918193F7CFBE
:100CC00010923B01DF91CF911F910F91FF900895FA
:100CD00080913C0181110DC00E94A320811102C0AE
:100CE00082E001C081E080933C01823011F40E94D7
:100CF0009E2081E090913C01913009F080E00895C0
:100D00000C9468060E948006809300010E94680689
:100D100081110C94CD0A08950E946806811102C0C9
:100D20000C94D30A0895EF92FF920F931F93CF93E1
:100D3000DF93EC017B0164E670E088E70E94290BF9
:100D40008C01EC0EFD1ECE15DF0561F017FD0AC00B
:100D5000FE01849164E670E00E94800B8C01219674
:100D6000892B89F30E94040CC801DF91CF911F9158
:100D70000F91FF90EF9008950895E8E2F2E080E08F
:100D800092E0DF019C011D9221503040E1F7F09389
:100D90002F04E0932E048FEF9FEF909363018093D5
:100DA000620108950E94BC0680935E0180FD02C02E
:100DB00080E801C080E280935D010E94230B6DE01A
:100DC00070E08BEE92E00E949306892B11F080E098
:100DD000089580915E0163E070E081FD03C088EEBC
:100DE00092E002C085EE92E00E949306892B79F78B
:100DF0006DE070E088ED92E00E949306892B39F750
:100E00000E94B919DC01CB01805A9541AF4FBF4F09
:100E100080932A0490932B04A0932C04B0932D0468
:100E20000E94BD0681E08093610180936001109271
:100E30005F01089520915D0136E0839FC001112478
:100E4000629F800D911D1124811522E0920714F0FC
:100E500080E090E0885D9D4F90932F0480932E0456
:100E60000895809161018823F9F00E94B919DC018D
:100E7000CB01805A9541AF4FBF4F80932A04909386
:100E80002B04A0932C04B0932D0480916001811158
:100E90000BC062E070E086ED92E00E949306892B21
:100EA00019F481E0809360018091600108956F9250
:100EB0007F928F929F92AF92BF92CF92DF92EF92EA
:100EC000FF920F931F93CF93DF938091610188234B
:100ED00009F4DCC0209162013091630121153105D4
:100EE00009F4D4C080915F018111D0C061E070E04D
:100EF000082F10E03B01082E02C0660C771C0A94F4
:100F0000E2F7A90146215721452B11F48F5FF0CF5D
:100F100090915E01980165E0220F331F6A95E1F719
:100F200090FD12C08295880F807680930301220F76
:100F3000232F221F330B319520930601815E80936E
:100F400004011092070112C045E0369527954A9595
:100F5000E1F7220F220F220F2093030110920601C6
:100F6000295F2093040183E08093070124E630E0A9
:100F700047E050E061E071E088E70E94B00B892B08
:100F800009F084C080915E0180FD23C0A80195E036
:100F9000440F551F9A95E1F7485D5D4F04E610E058
:100FA00020E230E060E488E70E94D70B892B09F04B
:100FB0006DC00E943107E301C095D0958091620118
:100FC00090916301C823D923D0936301C093620138
:100FD0005DC080E2EDE3F1E0DF011D928A95E9F763
:100FE00085E0000F111F8A95E1F7A1E3B1E04DE222
:100FF00051E0992493942D91EA018991AE01B801B1
:10100000680F711D685D7D4F30E0235C3E4FF90134
:1010100097E07F01E21AF30AA92C01C0AA0CEA9416
:10102000EAF77B01B12CE70189917E018A21892EA3
:101030008B18D82DD770CD2E0D2E000CDD08C82FA3
:1010400001C0CC0FDA95EAF7D194C194D108D7E06A
:10105000CD22DD2401C08695CA94EAF78C2BD0807E
:101060008D298083B39488E0B812DDCF91503196FA
:101070009F3F79F6C1E0A533BC0709F0BCCF04E679
:1010800010E020E230E04DE351E08CCFDF91CF91D2
:101090001F910F91FF90EF90DF90CF90BF90AF9096
:1010A0009F908F907F906F900895809161019091B3
:1010B0006001882389F0992369F062E070E084ED93
:1010C00092E00E949306892B19F0809160010895A7
:1010D000109260019091600181E089270895089540
:1010E0000F931F9380916101882399F180912804C7
:1010F000909129040E94C519C29760F00E94AD1911
:10110000909329048093280460E080E00E941A07ED
:101110000E946F080E945707809160018823C9F0E0
:101120000E94B91900912A0410912B0420912C04DB
:1011300030912D04DC01CB01801B910BA20BB30B72
:101140008F3F9F4FAF4FBF4720F41F910F910C94DB
:1011500055081F910F9108950F931F93CF93DF931D
:10116000C42FD22FFC0182818823C9F040936601ED
:101170000E94AD19909365018093640180E28C0F09
:10118000883008F057C0C77081E001C0880FCA9549
:10119000EAF7DF91CF911F910F910C94B50F8091D9
:1011A0006601481330C080916401909165010E94EE
:1011B000C519883C910538F510E21D0FCD17B9F01F
:1011C00080E28C0F883040F4C77081E001C0880F46
:1011D000CA95EAF70E94BC0F183028F581E09D2FD0
:1011E000977001C0880F9A95EAF70E94B50F802F7B
:1011F0000E94AC0F1830F0F4D77081E001C0880F66
:10120000DA95EAF70AC080E28C0F883098F4C7704C
:1012100081E001C0880FCA95EAF7DF91CF911F9155
:101220000F910C94BC0F802FDF91CF911F910F91E4
:101230000C94AC0FDF91CF911F910F9108950F93F4
:101240009C01CB01243F4CE5340731F188F4293D62
:10125000FCE53F07D9F02A3D4CE5340779F1283DFC
:101260003C45A9F506E221EE41EE68ED7CE52BC098
:10127000263FFCE53F07E1F0A8F0273F3C4539F564
:1012800007E225EE46EE67EF7CE51DC007E225EE9E
:1012900045EE69ED7CE517C006E221EE40EE64EF15
:1012A0007CE511C007E225EE44EE65EF7CE50BC05E
:1012B00006E221EE42EE66EF7CE505C008E221E0A1
:1012C00045EE6AED7CE50E94AC0880E008C0FC01B8
:1012D0008281882319F01092660101C081E00F918C
:1012E0000895CF93DF93EC01FB018281882309F4F9
:1012F0001FC1C230FCE5DF0708F41BC1C6319CE505
:10130000D90738F09E012B5F3C452930310508F0A4
:1013100010C10E943D189093110280931002C031B9
:10132000ECE5DE0709F4C3C008F041C0C8308CE525
:10133000D80709F49AC0F0F4C430ECE5DE0709F4EC
:1013400087C068F4C2308CE5D80709F477C0C33091
:10135000DC4509F0E3C080911002826076C0C6309F
:10136000ECE5DE0709F46EC008F07BC08091100246
:1013700088606BC0CC308CE5D80709F485C068F470
:10138000CA30ECE5DE0709F474C008F079C00E94A9
:10139000041280911002806858C0CE308CE5D807C6
:1013A00009F476C008F07FC0809110028BC0CC3F5A
:1013B000ECE5DE0709F44FC018F5C3318CE5D8071A
:1013C00009F47DC078F4C131ECE5DE0709F473C09F
:1013D000C231DC4509F0A2C00E94041280911002C3
:1013E0008F7733C0C5318CE5D80709F472C008F493
:1013F00086C0CB3FDC4509F091C0809111023EC010
:10140000C115FDE5DF0709F45FC058F4CE3F9CE548
:10141000D90709F444C008F43FC0809111028260EA
:101420002DC0C230FDE5DF0709F475C008F45DC0CA
:10143000C330DD4509F072C080E06EC080911002BB
:10144000816003C08091100280618093100266C0A9
:101450008091100211C0809111028260809311026C
:101460005DC0809110028062F0CF80911002806494
:10147000ECCF8091100288608460E7CF8160EECF6E
:10148000809110028E7FE1CF809110028D7FDDCFA1
:1014900080911002877FD9CF8091110218C080916E
:1014A00011028D7FDBCF809110028F7ECECF809195
:1014B00010028F7DCACF809110028F7BC6CF8091A2
:1014C0001002877F8B7FC1CF809111028D7F8E7F2D
:1014D000C5CF8091100282FB222720F991E092274C
:1014E00090FB82F990FB83F9B0CF80911102982F85
:1014F000909591708E7F892B90FB81F9AFCF0E94E0
:1015000004128091100287FB222720F991E0922794
:1015100090FB87F99ACF81E00E94D4188091100245
:10152000909111020E944E180E94041280E001C0A6
:1015300081E0DF91CF910895CF93DF9386319C4571
:1015400041F5EB010E947617982F8A8120911001B6
:1015500030911101882379F09A7A81E009F480E0D2
:1015600080936701911102C069E201C065E3C9017E
:101570000E941B190AC080916701811102C069E2B3
:1015800001C065E3C9010E941D190E94BB1780E0DC
:1015900001C081E0DF91CF91089561E070E088E0C3
:1015A00091E00C94680C61E070E088E091E00C94AC
:1015B000710CCF93DF93D62FC72F80E090E00E946D
:1015C0004A0D892BF1F4ED2FFC2F80E090E0DC0137
:1015D000A359BE4F2C912193019685309105B9F7FF
:1015E0000E94201ADC01CB010296A11DB11D80933F
:1015F000690190936A01A0936B01B0936C0181E043
:1016000001C080E0DF91CF910895CF93DF93D62F73
:10161000C72F6091690170916A0180916B0190916F
:101620006C010E94031AED2FFC2F80E090E02191C5
:10163000DC01A359BE4F2C93019685309105B9F773
:10164000DF91CF9108951092B9008CE08093B8009B
:101650000895EF92FF920F931F93CF93DF93182F6C
:10166000EB011092BC0084EA8093BC000E94AD198B
:101670007C018091BC0087FD0EC0CF3F8FEFD80763
:10168000C1F30E94AD198E199F098C179D0788F32D
:101690008EEF9FEF2EC08091B900887F883041F097
:1016A0008091B900887F803119F08FEF9FEF21C0C2
:1016B0001093BB0084E88093BC000E94AD198C019C
:1016C0008091BC0087FD0CC0CF3F8FEFD807C1F3DE
:1016D0000E94AD19801B910B8C179D0788F3D8CF02
:1016E0008091B900887F883111F08034F1F680E074
:1016F00090E0DF91CF911F910F91FF90EF900895AF
:101700000F931F93CF93DF93EB018093BB0084E88B
:101710008093BC000E94AD198C018091BC0087FDB4
:101720000EC0CF3F8FEFD807C1F30E94AD19801BC9
:10173000910B8C179D0788F38EEF9FEF0CC02091C3
:10174000B900287F81E090E0283211F480E090E039
:10175000919581959109DF91CF911F910F910895F6
:10176000CF92DF92EF92FF920F931F93CF93DF936D
:101770006B018A017901B9010E94290BE6010C0D68
:101780001D1DC017D10761F424E92093BC00DF912F
:10179000CF911F910F91FF90EF90DF90CF90089520
:1017A00097FDF2CFB70189910E94800BEACFCF92CB
:1017B000DF92EF92FF920F931F93CF93DF93C62F89
:1017C0006A017901B8010E94290B97FD11C0B80187
:1017D0008C2F0E94800BE601EC0CFD1CCE15DF0562
:1017E00039F097FD05C0B80189910E94800BF6CFB2
:1017F00024E92093BC00DF91CF911F910F91FF90BE
:10180000EF90DF90CF90089584E98093BC00089515
:101810008EE14A9B02C08150E1F74A9BFECF0895BA
:101820005A9880E28A95F1F75A9A0895FC012AE0C5
:101830002A95F1F790E020E080E031E0261779F07A
:1018400040E14A95F1F7880F4A9B02C081609327D7
:1018500000C0000040E14A95F1F72F5FEFCF20E193
:101860002A95F1F729B100C0000030E13A95F1F76F
:1018700022FB222720F992272081920F908308953E
:10188000EF92FF920F931F93CF93DF931F92CDB7E9
:10189000DEB719828C017C01E60EF11C0E151F05C6
:1018A00059F00E94080C68E0CE0101960E94160CC7
:1018B000F80181938F01F2CF81E09981911180E04D
:1018C0000F90DF91CF911F910F91FF90EF900895AE
:1018D000909374018093730160937201529A5A9AA3
:1018E00008959093740180937301609372015298EC
:1018F0005A9AEA9AE9E6F0E080818F7C8083089525
:10190000615091E001C0990F6A95EAF720E031E05B
:10191000992361F0492F482319F05A9A232701C0CF
:101920005A9840E24A95F1F79695F2CF222311F0AA
:101930005A9A01C05A9880E28A95F1F75A98089508
:10194000FF920F931F93CF93DF93EC018C01060F4F
:10195000111DC017D10741F0F9900E94100C68E0EA
:101960008F2D0E94800CF5CFDF91CF911F910F91A9
:10197000FF9008951F920F920FB60F9211240F93AC
:101980001F932F933F934F935F936F937F938F9307
:101990009F93AF93BF93EF93FF93CF93DF931F92E8
:1019A000CDB7DEB719820E94080C67E0CE01019620
:1019B0000E94160C382F369536953695932F9695AE
:1019C0009570232F2570920F292F23709695969549
:1019D0008770920F891348C08981811145C0809119
:1019E0007201831708F440C080E18A95F1F75A9A92
:1019F000529AA2E0AA95F1F700C0009173011091EC
:101A00007401B8E03B9F000D111D11245A98F80194
:101A10006581662321F0868197810E94A00C0E9437
:101A2000100CF0E1FA95F1F75A9852985A9A80E121
:101A30008A95F1F7D80112966C911297662369F096
:101A400013968D919C9114970E94400CD801ED91B2
:101A5000FC91811105C082E004C0D801ED91FC9198
:101A600088E080830E94080C0F90DF91CF91FF9156
:101A7000EF91BF91AF919F918F917F916F915F9106
:101A80004F913F912F911F910F910F900FBE0F908B
:101A90001F9018950F931F93CF93DF93209172019E
:101AA00030E0281739070CF471C09C0193E0220F35
:101AB000331F9A95E1F7C0917301D0917401C20F61
:101AC000D31FF894529A5A9845E04A95F1F70000CE
:101AD000982F969595708570890F982F937086959D
:101AE0008695890F8901082B0E94100C84E08A9545
:101AF000F1F700C067E0802F0E94800C40E14A951A
:101B0000F1F752985A9A4A9902C000C0FCCF87E078
:101B100090E04A9B0EC0019751F4529A5A9AE8817C
:101B2000F98181E08083789481E090E031C000C049
:101B3000F0CF6D81662381F08E819F810E94400CE1
:101B400081110AC0529A5A9AE881F98182E0808311
:101B5000789482E090E01CC00E94080C80E28A9594
:101B6000F1F75A98529A40E14A95F1F76A81662353
:101B700021F08B819C810E94A00C0E94100CE881B6
:101B8000F9811082789480E090E002C084E090E0D7
:101B9000DF91CF911F910F91089590937A018093D7
:101BA00079010895E0917901F0917A01309721F05F
:101BB0000190F081E02D099480E00895E091790191
:101BC000F0917A01309721F00280F381E02D0994A1
:101BD000089520917701309178012817390771F025
:101BE0009093780180937701E0917901F0917A01E7
:101BF000309721F00680F781E02D09940895209117
:101C00007501309176012817390771F090937601AC
:101C100080937501E0917901F0917A01309721F07C
:101C20000084F185E02D099408950E94B91960930C
:101C30008A0170938B0180938C0190938D01609346
:101C4000860170938701809388019093890108959C
:101C500085B7806885BF85B7806885BF08950C9477
:101C6000680608950C94310E0C94310E0C94340EC9
:101C70000C94310E0C94380E0C94310E0E94280EE8
:101C800088E298E10E944C1A0E943C0E0C943A0E95
:101C90000E94320E0C94310E0E94A4190E94FA196F
:101CA0000E94F90480E00E94D2060C94360E8F92B6
:101CB0009F92AF92BF92CF92DF92EF92FF920F93DB
:101CC0001F93CF93DF93CDB7DEB72A970FB6F89463
:101CD000DEBF0FBECDBF0E94A605982E81110E94C7
:101CE000150E8CE7A82E81E0B82E00E010E0802EC3
:101CF000802F0E94C704D82EF501C1905F01C8262D
:101D0000B1F40F5F1F4F0A30110589F78FEF8983F8
:101D10008A831B820E94AD198160782F9D838C83FA
:101D200049815A816B818D810E94FC0E2FC0809168
:101D3000040281FD0E94CD04E12CFF24F3948C2D3C
:101D40008F21F1F00E942F0E882399F0EE828F826E
:101D5000DF2081E009F480E088870E94AD1981606E
:101D6000782F9A8789874E815F8168858A850E944E
:101D7000FC0EF801E458FE4F8081F826F08206C080
:101D8000E394FF0CF6E0EF12DACFBBCF0E947008AD
:101D900091100E9431070E94D20D90917B0189170A
:101DA000C1F00E94D20D80937B012A960FB6F89461
:101DB000DEBF0FBECDBFDF91CF911F910F91FF907E
:101DC000EF90DF90CF90BF90AF909F908F900C944A
:101DD000D1022A960FB6F894DEBF0FBECDBFDF91B9
:101DE000CF911F910F91FF90EF90DF90CF90BF9018
:101DF000AF909F908F900895DF92EF92FF920F9394
:101E00001F93CF93DF93CDB7DEB72B970FB6F89420
:101E1000DEBF0FBECDBFF42E052F162FE72ED82E16
:101E200061110E949617FE01319686E0DF011D9236
:101E30008A95E9F77E2D4F2D502F612F8D2D9E8194
:101E40000E94BD142B960FB6F894DEBF0FBECDBF17
:101E5000DF91CF911F910F91FF90EF90DF90089548
:101E6000FC01808191810E9416170895CF938823E9
:101E700071F1C82F8CEF8C0F813AD0F46C2F8091C8
:101E80001001909111010E94E518882349F06C2FF0
:101E900080911001909111010E941D190E94BB17A1
:101EA0006C2F80911001909111010E941B190CC0A0
:101EB00080E28C0F883058F4C77081E001C0880F31
:101EC000CA95EAF70E947917CF910C94BB17CF916E
:101ED0000895882349F1682F8CEF860F813A38F4F2
:101EE00080911001909111010E941D190CC080E297
:101EF000860F883050F4677081E001C0880F6A95C2
:101F0000EAF70E947F170C94BB178BE5860F83308E
:101F100020F480E090E00C94E90D685A673120F4D9
:101F200080E090E00C94FF0D08951F93CF93DF9312
:101F3000182FEB010E94360F209741F08FE99FE0A8
:101F40000197F1F700C000002197F6CF812FDF91B4
:101F5000CF911F910C94690F893319F060E070E004
:101F600002C060E570E00C94950F882321F00E9478
:101F700079170C94BB170895882321F00E947F17CE
:101F80000C94BB170895CF92DF92EF92FF920F93BC
:101F90001F93CF93DF937C01D62FC72FFC010281C3
:101FA000158112951F700E944E17882399F0002307
:101FB00089F08C2F807F803421F080E28D0F883073
:101FC00048F082E00E940B180E944E1791E0D82E34
:101FD000D92601C0D12CCC2EC2948FE0C8228C2DE2
:101FE00090E08C30910508F08DC1FC01EA5AFF4F5A
:101FF0000C94B0208C2F807FCF70882311F0C29575
:10200000C07F002399F0CC2309F468C180E28D0FD2
:10201000883010F0D11104C08C2F0E94791703C0B2
:102020008C2F0E9489170E94BB1758C18D2F0E94C8
:10203000690FCC2309F466C180E28D0F883010F05F
:10204000D11104C08C2F0E947F1703C08C2F0E94D7
:102050008F170E94BB1756C18C2F807FCF708032A4
:1020600011F0C295C07FDD2319F0D130C9F022C034
:10207000002371F0112341F0113031F40E949C17BC
:102080008C2B0E94A4173EC10E949C178C2B1DC054
:10209000112319F0113009F435C10E94B11725C080
:1020A000002321F0163008F02DC10EC0153008F0C5
:1020B00029C11BC0002361F0112331F0F701858194
:1020C00080FF0CC18F7085838C2F0E94B50F1AC1C1
:1020D000112359F0D93309F012C1FFEF07EE13E0D5
:1020E000F15000401040E1F708C18C2F0E94BC0F56
:1020F00009C18C2F837009F047C0011107C12D2F32
:10210000229526952770220F220F6D2F6F70862F34
:1021100090E0A0E0B0E0022E04C0880F991FAA1F33
:10212000BB1F0A94D2F7D4FF10C04FE050E060E02C
:1021300070E004C0440F551F661F771F2A95D2F721
:10214000409550956095709503C040E050E0BA010D
:10215000C695C695C3708A019B01082B192B2A2BA3
:102160003B2BC901B801C23049F058F4C13019F015
:102170000E949115CBC00E947F15C8C00E94A31574
:10218000C5C00E947D15C2C0002319F08C2F81703C
:1021900001C08695882309F4B9C02D2F2295269574
:1021A0002770220F220F6D2F6F70862F90E0A0E016
:1021B000B0E0022E04C0880F991FAA1FBB1F0A940B
:1021C000D2F7D4FF10C04FE050E060E070E004C0F0
:1021D000440F551F661F771F2A95D2F740955095DB
:1021E0006095709503C040E050E0BA01C695C69571
:1021F000C3708A019B01082B192B2A2B3B2BC90189
:10220000B801C23049F058F4C13019F00E94561696
:102210007DC00E9444167AC00E94681677C00E9452
:10222000B71574C0CF70002339F08C2F0E94DD15D4
:102230008D2F0E94B50F6AC08D2F0E94BC0F8C2F6E
:102240000E94FE1563C0D23F01F128F4D03F41F057
:10225000D13FA1F03FC0D33FF9F0D43F39F13AC0AC
:10226000002341F0153008F04DC08C2F8F710E9473
:10227000231648C0163008F045C0F7CF002339F0C8
:102280008C2F8F710E94DD153DC00023C9F38C2F68
:102290008F710E94FE1536C0002329F08C2F8F719C
:1022A0000E94C8152FC00E94C3152CC0002349F0FE
:1022B000CF718C2F0E94DD1563E08C2F0E94F017E8
:1022C00021C081E00E940B181230E0F082E00E94F1
:1022D0000B1818C0002331F0112391F28D2F0E94AA
:1022E000360F10C0112399F2D93349F41FEF27EEAE
:1022F00033E0115020403040E1F700C000008D2F46
:102300000E94690F88EF8C0D843020F40E94D20D5A
:102310000E94D102DD20C9F00E944A1780FD15C03D
:10232000F70112820E9444170E94DD15C7010E9426
:10233000C6110E944417DF91CF911F910F91FF901A
:10234000EF90DF90CF900C94FE15DF91CF911F910D
:102350000F91FF90EF90DF90CF9008950F931F9310
:10236000CF93DF93EC01688179818A810E942117E4
:102370008C010E947A160E946B15B801CE010E9452
:10238000C30FDF91CF911F910F910895CF93DF93EA
:10239000EC01988189812B813C81232B31F08F3F87
:1023A00031F481E09F3F19F403C081E001C080E077
:1023B00080FD19C0CE010E94780281110CC00E94DC
:1023C0004E17882381F08A81882369F082E0DF91AB
:1023D000CF910C940B18CE010E94AE11CE01DF916B
:1023E000CF910C945702DF91CF9108950E949617D8
:1023F0000E9499170C94BB178091100190911101C4
:102400000E941F190C94F6110E9486170C94FC115F
:10241000E92FE295EF704E2F50E0FA013297EE303F
:10242000F105B0F4EE59FF4F0C94B020803F91F0CD
:1024300018F4883E68F40EC0843F51F40BC0883E07
:1024400048F0813F29F406C093FB882780F908955E
:1024500080E0089581E008950E9416170E940812F6
:102460000895CF93DF9300D000D01F92CDB7DEB791
:102470000F900F900F900F900F90DF91CF910895D4
:10248000CF93DF9300D000D000D0CDB7DEB7269633
:102490000FB6F894DEBF0FBECDBFDF91CF91089588
:1024A0001F93CF93DF93C0918F0116E0809190012D
:1024B000C81799F0D0E01C9FF0011D9FF00D11246A
:1024C000EF56FE4F408151816281738184819581F5
:1024D0000E9440122196C770E9CFDF91CF911F91E2
:1024E00008954091C1015091C2016091C301709162
:1024F000C4018091C5019091C6010C9440120F93C4
:102500001F93CF93DF938091C60182958F7009F05E
:102510005DC08091C301882309F458C080918F0168
:10252000109190016091C1017091C201C091C401EC
:10253000D091C50191E06F3F09F090E0292F06E0AE
:10254000811709F443C0209721F07F3F21F030E04C
:1025500003C031E001C0322F90E030FD34C0089F4D
:10256000F001099FF00D1124DF01AF56BE4F119607
:102570003C911197371327C03C91361324C0129613
:102580003C91129731111FC013964D915C91149795
:102590004C1B5D0B483C5105B0F48091C6018F7017
:1025A00080618093C601EA56FE4F80818F70806102
:1025B000808381EC91E00E94C611DF91CF911F9141
:1025C0000F910C94501201968770BACFDF91CF9182
:1025D0001F910F9108959F92AF92BF92CF92DF9279
:1025E000EF92FF920F931F93CF93DF93CDB7DEB798
:1025F00061970FB6F894DEBF0FBECDBF8C0185E0AA
:10260000F801DE011D9601900D928A95E1F7F8011F
:1026100040815181E2809091C1016091C20120917D
:10262000C4013091C5012115310531F06F3F31F4FE
:1026300081E09F3F19F403C081E001C080E0F82FE2
:10264000F1709F2E80FD46C1F801A380B48081EC1B
:10265000C82E81E0D82EF090C301F501E21BF30BE8
:10266000FF2009F4DFC08091C601E83CF10508F0C5
:102670009BC0282F207F09F052C0561313C0491366
:1026800011C0FE2CE1100EC08F7080618093C601D6
:102690000E947112C6010E94C6118091C601F80104
:1026A000858358C1AB2831F05F3F31F481E04F3F63
:1026B00019F403C081E001C080E080FD03C081E027
:1026C0008E2502C080E090E0F82FF170FF2E80FF91
:1026D0001CC080918F012091900136E0821709F48F
:1026E00017C190E0389FF001399FF00D1124EF568B
:1026F000FE4F6181561306C06081461303C062819C
:10270000E61203C001968770E9CFFE2CEE2009F493
:1027100021C18091C60181608093C6015AC05613C1
:1027200006C0491304C0E11002C0F8019FC04D87E4
:102730005E878D859E850E942C12882379F1EE207C
:1027400069F12091C601822F82958F7090E00297E7
:1027500074F08091C1019091C20198878F8319868E
:10276000BB86AA862C87CE0107960E94C61186E0FA
:10277000F801A1ECB1E001900D928A95E1F70E9479
:102780007F120E9471120DC0561729F14D875E8786
:102790008D859E850E942C1281112CC0C8010E943B
:1027A000C611FF24F394D6C0282F207F69F77A2D15
:1027B000B98AA88A6E2D89890E94311281EC91E034
:1027C0000E94C61186E0F60111928A95E9F70E94EF
:1027D0007112F12CBFC04913D9CFE110D7CFF80146
:1027E0008583C8010E94C61186E0F60111928A9580
:1027F000E9F7B0C0EE2091F22091C601822F8295B8
:102800008F7090E002970CF4B2CF8091C10190914B
:10281000C2019A8389831B82BD82AC822E83CE0142
:102820000196A3CFE83CF10508F047C0FE2CEE204E
:1028300009F4B4CF561330C049132EC02091C601FD
:1028400020FD21C0822F82958F70482F50E04115C6
:102850005105C9F0F80125834F30510541F08F5FD4
:10286000982F9295907F822F8F70892B8583C80136
:102870000E94C61186E0F801A1ECB1E001900D9232
:102880008A95E1F742C086E0F801A1ECB1E0019041
:102890000D928A95E1F75EC04D875E878D859E8596
:1028A0000E942C12811163CF8091C60181608093B8
:1028B000C601C8010E94C6114DC07A2DB98AA88AE6
:1028C0006E2D89890E94311286E0F60111928A9557
:1028D000E9F71BC0EE2009F461CF4D875E878D8537
:1028E0009E850E942C12F82E882309F457CF86E08B
:1028F000F801A1ECB1E001900D928A95E1F781EC2D
:1029000091E00E94300F0E947F120E94711222C03B
:102910004D875E878D859E850E941617292F2295EB
:102920002F70223028F49F7039F0811105C00BC040
:10293000243028F49F7049F4805E883020F0C8016C
:102940000E94C6119F2CF92C05C0F8019581907F3B
:1029500099F7F9CF8F2D61960FB6F894DEBF0FBEB1
:10296000CDBFDF91CF911F910F91FF90EF90DF903E
:10297000CF90BF90AF909F9008951F93CF93DF9318
:10298000CDB7DEB72C970FB6F894DEBF0FBECDBF24
:102990004F83588769877A878B879C87CE010796F4
:1029A0000E94EB128823D1F09F8188852A853B8580
:1029B000232B31F08F3F31F481E09F3F19F403C0A6
:1029C00081E001C080E080FD47C04F815885698566
:1029D0007A858B859C850E9440123EC086E0FE0170
:1029E0003796DE01119601900D928A95E1F7FF81ED
:1029F000E8856A857B856115710531F0EF3F31F41B
:102A000081E0FF3F19F403C081E001C080E080FD58
:102A100023C02091900130E0C90101968770992769
:102A200040918F0150E084179507F1F1F983EA8313
:102A30007D836C8396E0929FD001939FB00D11240B
:102A4000AF56BE4FFE01319601900D929A95E1F777
:102A5000809390010E94501216E080918F01909116
:102A60009001891771F1189FC00111248F569E4F54
:102A70000E94EB12882329F1E0918F011E9FF00143
:102A80001124EF56FE4F4081518162817381848110
:102A900095810E94401280918F0190E0019687708D
:102AA000992780938F01D9CF0E9404121092900130
:102AB00010928F01E1ECF1E086E0DF011D928A9532
:102AC000E9F72C960FB6F894DEBF0FBECDBFDF91AD
:102AD000CF911F910895089508950C946C150C944E
:102AE0006D150E946F156093F3017093F40180934C
:102AF000F5019093F6010C94F6110C9471150F9357
:102B00001F930091F3011091F4012091F501309190
:102B1000F601602B712B822B932B1F910F910C943C
:102B200071150F931F930091F3011091F4012091FF
:102B3000F5013091F60160237123822393231F91C5
:102B40000F910C9471150F931F930091F301109145
:102B5000F4012091F5013091F60160277127822759
:102B600093271F910F910C9471150C946C150E9472
:102B7000B5156093EF017093F0018093F10190938C
:102B8000F2010C94F61160E070E0CB010C94B715E3
:102B90000F931F9341E050E060E070E08A019B01D9
:102BA00004C0000F111F221F331F8A95D2F7C901DD
:102BB000B8011F910F910C94B7150F931F9341E02B
:102BC00050E060E070E004C0440F551F661F771F9F
:102BD0008A95D2F78091EF019091F001A091F101D7
:102BE000B091F2018A019B01082B192B2A2B3B2B58
:102BF000C901B8011F910F910C94B7150F931F9342
:102C000041E050E060E070E004C0440F551F661FD3
:102C1000771F8A95D2F74095509560957095809171
:102C2000EF019091F001A091F101B091F2018A01C0
:102C30009B01082319232A233B23C901B8011F91B3
:102C40000F910C94B7150F931F9341E050E060E093
:102C500070E004C0440F551F661F771F8A95D2F796
:102C60008091EF019091F001A091F101B091F201FA
:102C70008A019B01082719272A273B27C901B80188
:102C80001F910F910C94B7150F931F930091EF01B3
:102C90001091F0012091F1013091F201602B712B24
:102CA000822B932B1F910F910C94B7150F931F93A9
:102CB0000091EF011091F0012091F1013091F201AA
:102CC00060237123822393231F910F910C94B715D6
:102CD0000F931F930091EF011091F0012091F101EA
:102CE0003091F20160277127822793271F910F915E
:102CF0000C94B7150895292F220F920F990F890F61
:102D0000E82FE695E695E695877051E001C0550FEE
:102D10008A95EAF785E0E89FF0011124E953FE4F18
:102D200020E030E070E04081CB01022E02C0969599
:102D300087950A94E2F781708195842785238427FB
:102D400081932F5F3F4F2530310569F70895292F73
:102D5000220F920F990F890F682F669566956695D9
:102D6000982F977085E0689FB001112440E050E0F3
:102D700080E0FB01E40FF51FE953FE4F208130E0B6
:102D8000092E02C0369527950A94E2F72170332761
:102D9000042E01C0220F0A94EAF7822B4F5F5F4F87
:102DA0004530510531F70895BF92CF92DF92EF92EF
:102DB000FF920F931F93CF93DF938C01C090EF018D
:102DC000D090F001E090F101F090F2018091F301D8
:102DD0009091F401A091F501B091F601C82AD92A89
:102DE000EA2AFB2ACFE1D0E0D701C6010C2E04C0AD
:102DF000B695A795979587950A94D2F780FD04C05C
:102E0000219790F7B12C07C0BC2EB8018C2F0E94DF
:102E1000ED020197A9F38B2DDF91CF911F910F91B7
:102E2000FF90EF90DF90CF90BF900895CF93DF9306
:102E3000EC010E94D416BE010E94ED02DF91CF91F9
:102E400008951F93CF93DF93EB0190918E01992307
:102E500021F0CB010E94161713C0882349F0CB0143
:102E60000E94D416182F682FCE010E947B1604C032
:102E7000CB010E94A716182FBE01812F0E94ED02E0
:102E8000DF91CF911F9108958091F70185958595E8
:102E9000859508958091F701877008959091F701C5
:102EA000977081E009F480E008959091110292FBFF
:102EB000222720F9281751F080FB92F990931102F4
:102EC00080911002909111020C944E1808958091F7
:102ED000110282FB882780F991E089270C9455170D
:102EE00081E00C94551780E00C94551780910302F3
:102EF000089590910302892B809303020895809591
:102F00009091030289238093030208951092030293
:102F1000089590910202892B809302020895809572
:102F20009091020289238093020208951092020276
:102F300008951092010208958091F801089508956E
:102F40000C949F170C94A0179091110292FD08C049
:102F50009091F801981721F08093F8010C94A21732
:102F600008958091F801882329F01092F80180E0FB
:102F70000C94A2170895E0911001F0911101809135
:102F800003028083E0911001F09111019081809102
:102F90000202892B8083E0911001F0911101908150
:102FA00080910102892B80838091F801882381F030
:102FB000E0911001F09111019081892B8083809123
:102FC0001001909111010E94D91881110E94B1172E
:102FD00080911001909111010C94DE0D0C949F17BB
:102FE0009091110292FD10C098E0899F90011124E8
:102FF000262B2093F7010E94DD158091F70185951E
:10300000859585950C94EE170C94DD151092F701BB
:1030100080E00C94EE172091F70180958223809335
:10302000F701982F977041F430E0482F082E000CDC
:10303000550B2417350721F49091110292FF07C018
:103040008595859585950E94FE150C940618089522
:1030500080E0089580E090E00E94BE2021E08A3E5A
:103060009E4F09F020E0822F089582E090E00C94BA
:10307000B62083E090E00C94B620CF9384E090E0FB
:103080000E94B620C82F82E290E00E94B6202C2F2A
:1030900030E0A901582BCA01CF910895CF93C92FD1
:1030A000682F84E090E00E94C4206C2F82E290E0C0
:1030B000CF910C94C420AB01BC018FE090E00C9444
:1030C000D620AB01BC0183E190E00C94D62060E0F7
:1030D00070E0CB010C94611860E070E0CB010E94BD
:1030E0005B180C9467186AEE7EEF80E090E00E9417
:1030F000E22060E082E090E00E94C42060E083E093
:1031000090E00E94C4201092F3011092F4011092FA
:10311000F5011092F60160E084E090E00E94C42086
:1031200060E082E290E00E94C42060E085E090E0F0
:103130000E94C42060E086E090E00E94C4206FEF0F
:1031400087E090E00E94C42040E050E0BA0188E0AF
:1031500090E00E94D62060E08DE090E00E94C420C4
:1031600040E050E0BA0188E190E00E94D62060E0A3
:1031700087E190E00E94C42040E050E0BA018CE179
:1031800090E00E94D62060E070E080E290E00E9433
:10319000E22040E050E0BA0188E190E00E94D620B1
:1031A0000C946C180C947318682F8EE090E00C94BB
:1031B000C420FC01329697E080E0915029F02191E3
:1031C0002223D9F38F5FF9CF0895662349F0FC01DC
:1031D000329608962191621729F0E817F907D1F77E
:1031E00080E0089581E008959C01FC0132969FEFF4
:1031F00080E04191461789F09F3F19F4411101C0C9
:10320000982F8F5F8630A9F79F3F39F0F901E90FBA
:10321000F11D97FDFA956283089508959C012A5F38
:103220003F4FFC014281461301C012820196821772
:103230009307B9F708950C94F4180C940E1902969C
:1032400026E0FC0111922A95E9F7089508950C945F
:1032500026190C942619CF930E9429190E94A605BD
:103260000E942719C0E08C2F0E94C704811104C05E
:10327000CF5FCA30C1F701C081E0CF9108950C94AF
:1032800026190C943F1980913C04843049F10E9426
:10329000411980E00E94D1021092050220E488E1E9
:1032A00090E00FB6F894A895809360000FBE20932D
:1032B000600083B7817F846083BF83B7816083BFF1
:1032C0007894889583B78E7F83BF0FB6F894A895BE
:1032D00080916000886180936000109260000FBE52
:1032E00008950C9426190E9404120E94D20D0E9487
:1032F000D1020C9471191F920F920FB60F921124E4
:103300008F939F93AF93BF9380910502811113C058
:103310008091300490913104A0913204B091330433
:103320004196A11DB11D8093300490933104A09368
:103330003204B0933304BF91AF919F918F910F905E
:103340000FBE0F901F90189582E084BD93E095BD4D
:103350009AEF97BD80936E0008952FB7F8948091EF
:10336000300490913104A0913204B09133042FBF06
:1033700008952FB7F89460913004709131048091D2
:103380003204909133042FBF08959C014FB7F894F5
:103390008091300490913104A0913204B0913304B3
:1033A0004FBF821B930B089578941F920F920FB614
:1033B0000F9211248F939F93AF93BF93809130040A
:1033C00090913104A0913204B09133040196A11D73
:1033D000B11D8093300490933104A0933204B093D4
:1033E0003304BF91AF919F918F910F900FBE0F90BB
:1033F0001F901895109234041092350410923604E0
:10340000109237040895CF92DF92EF92FF926B01F2
:103410007C010E94680681110EC00E94B919C61A6B
:10342000D70AE80AF90AC0923404D0923504E0922F
:103430003604F0923704FF90EF90DF90CF9008951C
:103440000F931F930E946806882321F01F910F910C
:103450000C94B9190E94B9190091340410913504E3
:103460002091360430913704600F711F821F931F23
:103470001F910F91089587E797E790930108809334
:1034800000089AE088E10FB6F894A8958093600050
:103490000FBE90936000FFCF909337018093360169
:1034A000089580910E02089508950895CF93DF93B3
:1034B00021E02093E9002FEF3091E800215035FD05
:1034C00006C035ED3A95F1F700002111F5CF2091B6
:1034D000E80025FF14C0EC0140E050E068E070E037
:1034E0000E94001C8091E8008E778093E80088E0BD
:1034F000FE01A6E0B2E001900D928A95E1F7DF911E
:10350000CF910895089580913B04811109C00E94D4
:10351000911D0E94EE1D8091E20084608093E20084
:10352000089510923B04089508950895089542E087
:1035300061EC81E00C940A1D80913E04833009F413
:1035400060C030F4813071F0823009F499C0089580
:103550008A3009F485C08B3009F46BC0893009F0DA
:10356000A7C020C080913D04813A09F0A1C080919C
:10357000E800877F8093E8008091410490914204A5
:10358000892B21F468E086E092E003C060E080E0EF
:1035900090E070E00E944B1C8091E8008B77809354
:1035A000E800089580913D04813209F081C0809146
:1035B000410490914204892B09F07AC08091E8007F
:1035C000877F8093E8008091E80082FD05C08091AC
:1035D0003C048111F8CF6CC02091F3008091F2007F
:1035E00090E0922B029729F48091F1008B7F81303B
:1035F00021F48091F10080930E028091E8008B7796
:1036000053C080913D04813A09F052C08091410439
:1036100090914204892B09F04BC08091E800877F8C
:103620008093E8008091E80080FFFCCF80911C012E
:1036300036C080913D048132D9F58091410490914A
:103640004204892BA9F58091E800877F8093E800E8
:103650000E943F1D80913F0480931C010C94041232
:1036600080913D04813221F58091E800877F80932D
:10367000E8000E943F1D8091400480930F0208954E
:1036800080913D04813AA1F48091E800877F809386
:10369000E8008091E80080FFFCCF80910F028093CA
:1036A000F1008091E8008E778093E8000C943F1D34
:1036B000089584B7877F84BF0FB6F894A89580914A
:1036C0006000886180936000109260000FBE90E0FF
:1036D00080E80FB6F89480936100909361000FBE6C
:1036E0000E943E0E0E94911D0E94EE1D8091E200FC
:1036F00084608093E20078940E9483200E944C0EA4
:1037000082E191E00E94CD0D80913C048530A9F4C6
:1037100080913C04853079F40E94431980913A04E9
:103720008823B1F30E942B19882391F30E94EA1B8E
:103730000E940412EDCF0E9473190E94570E0E943E
:10374000480EE2CF0C94A41B292F332723303105D8
:10375000C1F058F42130310579F02230310591F56E
:1037600082E290E02EE133E031C021323105E1F018
:103770002232310501F126C082E190E020E433E0FD
:1037800025C099278130910549F028F00297D1F49E
:10379000E8EFF2E005C0EAE1F3E002C0E8E0F3E0C0
:1037A000849190E09F0112C0672B61F489E090E062
:1037B00020E333E00BC0672B29F480E490E022E59E
:1037C00033E004C080E090E020E030E0FA01318393
:1037D0002083089580E189BD82E189BD09B400FE9E
:1037E000FDCF8091D8008F7D8093D8008091E0003C
:1037F00082608093E0008091E00081FDFCCF08951D
:10380000CF92DF92EF92FF920F931F93CF93DF93AC
:10381000EC018B017A010E945E1D811133C0E1141D
:10382000F10439F0F70180819181081B190BC80F51
:10383000D91FC12CD12C0115110519F18091E80077
:1038400085FD16C08091E8008E778093E800E11432
:10385000F10449F0F70180819181C80ED91ED1820F
:10386000C08285E00FC00E945E1D882321F30AC03C
:1038700089918093F10001501109FFEFCF1ADF0AFF
:10388000DACF80E0DF91CF911F910F91FF90EF9001
:10389000DF90CF900895209143043091440426177F
:1038A000370748F06115710539F42091E8002E774B
:1038B0002093E80001C0B901FC0120E06115710509
:1038C00079F180913C048823F1F18530F1F1809108
:1038D000E80083FD3CC08091E80082FD2EC080910D
:1038E000E80080FFEBCF2091F3008091F20090E0A0
:1038F000922B6115710551F08830910538F42191B2
:103900002093F100615071090196F3CF21E00897EF
:1039100009F020E08091E8008E778093E800CECF18
:103920002111CFCF0AC080913C04882361F08530FB
:1039300061F08091E80083FD0AC08091E80082FF79
:10394000F2CF80E0089582E0089583E0089581E059
:10395000089520914304309144042617370748F016
:103960006115710539F42091E8002E772093E80065
:1039700001C0B901FC0120E06115710591F1809150
:103980003C04882309F440C0853009F43FC080918D
:10399000E80083FD3DC08091E80082FD2FC080914A
:1039A000E80080FFE9CF2091F3008091F20090E0E1
:1039B000922B6115710559F08830910540F42491DE
:1039C0002093F1003196615071090196F2CF21E008
:1039D000089709F020E08091E8008E778093E80056
:1039E000CBCF2111CCCF0AC080913C04882361F059
:1039F000853061F08091E80083FD0AC08091E80085
:103A000082FFF2CF80E0089582E0089583E0089578
:103A100081E00895982F973068F59093E900981702
:103A200039F07091EC002091ED005091F00003C04E
:103A3000242F762F50E021FD02C09F5FECCF309104
:103A4000EB003E7F3093EB003091ED003D7F3093F3
:103A5000ED003091EB0031603093EB007093EC009F
:103A60002093ED005093F0002091EE0027FDE5CF6C
:103A700080E008958F708093E90081E0089580913F
:103A80003D0487FF11C08091E80082FD05C0809150
:103A90003C048111F8CF11C08091E8008B770BC0F6
:103AA00080913C04882349F08091E80080FFF8CFA2
:103AB0008091E8008E778093E80008952091E400DB
:103AC0003091E50095E64091EC00842F817040FF35
:103AD00023C08091E80080FD1DC080913C048823B4
:103AE00099F0853099F08091EB0085FD11C04091EF
:103AF000E4005091E5002417350729F3915011F0A7
:103B00009A01E1CF84E0089582E0089583E008956A
:103B100081E0089580E008954091E80042FFDDCF04
:103B200008950E94FF1D0E94071EE0EEF0E08081D4
:103B300081608083E8EDF0E080818F77808319BC1D
:103B4000A7EDB0E08C918E7F8C9380818F7E8083F7
:103B500010923B0408950F931F93CF93DF930E941D
:103B6000FF1D0E94071EC8EDD0E088818F778883F3
:103B700088818068888388818F7D888319BC1092B2
:103B80003C041092380410923A041092390400EE6A
:103B900010E0F80180818B7F808388818160888339
:103BA00042E060E080E00E940A1DE1EEF0E08081EA
:103BB0008E7F8083E2EEF0E080818160808380816F
:103BC00088608083F80180818E7F80838881806116
:103BD0008883DF91CF911F910F910895E8EDF0E078
:103BE00080818F7E8083E7EDF0E08081816080833B
:103BF00084E082BF81E080933B040C94AB1DE8ED30
:103C0000F0E080818E7F80831092E2000895109210
:103C1000DA001092E10008951F920F920FB60F92F2
:103C200011242F933F934F935F936F937F938F93C1
:103C30009F93AF93BF93EF93FF938091E10082FF37
:103C40000BC08091E20082FF07C08091E1008B7F72
:103C50008093E1000E9482208091DA0080FF1FC0E3
:103C60008091D80080FF1BC08091DA008E7F809306
:103C7000DA008091D90080FF0DC080E189BD82E12A
:103C800089BD09B400FEFDCF81E080933C040E9411
:103C9000831A05C019BC10923C040E94911A8091AD
:103CA000E10080FF19C08091E20080FF15C0809183
:103CB000E2008E7F8093E2008091E2008061809339
:103CC000E2008091D80080628093D80019BC85E022
:103CD00080933C040E94951A8091E10084FF30C0DB
:103CE0008091E20084FF2CC080E189BD82E189BD22
:103CF00009B400FEFDCF8091D8008F7D8093D8005D
:103D00008091E1008F7E8093E1008091E2008F7EC0
:103D10008093E2008091E20081608093E2008091D4
:103D20003804882311F084E007C08091E30087FD08
:103D300002C081E001C083E080933C040E94961A97
:103D40008091E10083FF29C08091E20083FF25C0BC
:103D50008091E100877F8093E10082E080933C04C2
:103D6000109238048091E1008E7F8093E100809171
:103D7000E2008E7F8093E2008091E2008061809378
:103D8000E20042E060E080E00E940A1D8091F000C5
:103D900088608093F0000E94941AFF91EF91BF9188
:103DA000AF919F918F917F916F915F914F913F91D3
:103DB0002F910F900FBE0F901F9018951F920F928A
:103DC0000FB60F9211242F933F934F935F936F93EE
:103DD0007F938F939F93AF93BF93CF93DF93EF9393
:103DE000FF93C091E900CF708091EC00D82FD17083
:103DF00080FDD0E81092E9008091F000877F8093E9
:103E0000F00078940E94221F1092E9008091F00047
:103E100088608093F000CD2BCF70C093E900FF91B4
:103E2000EF91DF91CF91BF91AF919F918F917F9152
:103E30006F915F914F913F912F910F900FBE0F9017
:103E40001F9018951F93CF93DF93CDB7DEB7AA9736
:103E50000FB6F894DEBF0FBECDBFEDE3F4E0809166
:103E6000F100819324E0E534F207C9F70E949C1A1F
:103E70008091E80083FF2EC180913D0490913E0423
:103E8000492F50E04A30510508F024C1FA01E059A9
:103E9000FF4F0C94B020803821F0823809F01AC10D
:103EA00008C08091390490913A04992389F0826086
:103EB0000FC0809141048F70873008F00BC1809350
:103EC000E9008091EB0085FB882780F91092E900DA
:103ED0009091E800977F9093E8008093F100109212
:103EE000F100D1C0282F2D7F09F0F4C0882319F0EC
:103EF000823061F0EFC080913F04813009F0EAC068
:103F0000933009F080E080933A042EC080913F0402
:103F100081112AC0809141048F702FEF280F263025
:103F200008F0D8C08093E9002091EB0020FF1CC06E
:103F3000933021F48091EB00806214C09091EB00EB
:103F400090619093EB0021E030E0A90102C0440FA2
:103F5000551F8A95E2F74093EA001092EA0080919B
:103F6000EB0088608093EB001092E9008091E800FC
:103F7000877F8093E8000E943F1DACC08111AAC0DA
:103F800010913F041F778091E3008078812B80930C
:103F9000E3008091E800877F8093E8000E943F1D46
:103FA0008091E80080FFFCCF8091E30080688093DF
:103FB000E300111102C082E001C083E080933C0461
:103FC00089C08058823008F085C080913F0490916C
:103FD00040048C3D53E0950779F583E08A838AE2BB
:103FE00089834FB7F894DE01139620E03EE051E25A
:103FF000E32FF0E050935700E49120FF03C0E295D7
:10400000EF703F5FEF708E2F90E0EA3010F0C796B0
:1040100001C0C0968D939D932F5F243149F74FBF08
:104020008091E800877F8093E8006AE270E0CE012B
:1040300001960E944B1C16C060914104709142048D
:10404000AE014F5F5F4F0E94A21BBC01892B09F498
:1040500041C09091E800977F9093E80089819A8110
:104060000E94A91C8091E8008B778093E80032C001
:10407000803881F58091E800877F8093E800809107
:1040800038048093F1008091E8008E7772CF81111F
:1040900021C080913F049091400499270297D4F465
:1040A0008091E800877F8093E80080913F048093AF
:1040B00038040E943F1D80913804811106C0809110
:1040C000E30087FD02C081E001C084E080933C04EE
:1040D0000E94971A8091E80083FF0AC08091E8004F
:1040E000877F8093E8008091EB0080628093EB00F3
:1040F000AA960FB6F894DEBF0FBECDBFDF91CF9169
:104100001F9108950895CF9380913C048823A1F0D6
:10411000C091E900CF709091EC00892F817090FDE3
:1041200080E8C82B1092E9008091E80083FD0E948E
:10413000221FCF70C093E900CF9108950E94911D76
:1041400010923C040895E8EDF0E080818061808366
:104150008AE18A95F1F700C08091D90081700895B5
:10416000EE0FFF1F0590F491E02D0994F999FECF11
:1041700092BD81BDF89A992780B50895A8E1B0E075
:1041800042E050E00C94EA20262FF999FECF92BD30
:1041900081BDF89A019700B4021639F01FBA20BD0C
:1041A0000FB6F894FA9AF99A0FBE08950396272F3E
:1041B0000E94C5200E94C420252F0E94C520242FC4
:1041C0000C94C5200196272F0E94C5200C94C42072
:1041D000DC01CB01FC01F999FECF06C0F2BDE1BDC7
:1041E000F89A319600B40D9241505040B8F70895B6
:0441F000F894FFCF71
:1041F400010021007F2200036801046901056D01AB
:10420400F901511A561A541A821A551A01F6F7313D
:104214003332366697C634350000000000000810BB
:064224001818100800004C
:00000001FF
