:100000000C9405020C944C020C944C020C94F60CCB
:100010000C944C020C944C020C944C020C944C0228
:100020000C944C020C944C020C94481E0C941A1F15
:100030000C94B7190C944C020C944C020C944C0286
:100040000C944C020C944C020C944C020C944C02F8
:100050000C944C020C94101A0C944C020C944C020C
:100060000C944C020C944C020C944C020C944C02D8
:100070000C944C020C944C020C944C020C944C02C8
:100080000C944C020C944C020C944C020C944C02B8
:100090000C944C020C944C020C944C020C944C02A8
:1000A0000C944C020C944C020C944C0236103610FA
:1000B00068106810BE11BE11BE11BE11B5104E11F0
:1000C0005F115F1152125212641264125B126412B9
:1000D000641264125212521260126412641260129C
:1000E000871FAE1FA620AE1FA620FA1F1D20A62028
:1000F0007420832029001E001F0020002100220000
:100100002B0014001A00080015001700E00004007E
:100110001600070009000A00E2001D001B0006008F
:100120001900050000000251E300E1002C00045119
:100130003500270026002500240023002D00130091
:1001400012000C0018001C00340033000F000E00D9
:100150000D000B00E60038003700360010001100DB
:10016000000001512A00E5002800300001000100D4
:100170004C005400550056003A003B005F00600000
:100180006100570035001E025C005D005E008500C6
:100190000100010059005A005B00670000000100E7
:1001A000620063005800010001000100010001002D
:1001B00001000100450044004300420041004000AE
:1001C00035022702260225022402230231023002D0
:1001D0002F022E022D02000000000351E40039001E
:1001E000010001003A003B00010001000100010094
:1001F00035001E001F002000210022003A003B00B5
:100200003C003D003E003F004000410042004300F2
:1002100044004500000001000100035101000100FD
:1002200001000100010001000100010001002700A0
:10023000260052004B00230000004D004F005100EB
:1002400050004A00310030002F002E004E002E02D8
:10025000000001004C00E500010046000000000025
:10026000000000000000000000000000000000008E
:10027000000000000000000000000000000000007E
:10028000000000000000000000000000000001006D
:10029000010001000100000000000000000000005B
:1002A000000000000000000000000000000000004E
:1002B000000000000000000000000000000000003E
:1002C000000000000000000000000100010001002B
:1002D00001000000000000000000F300F200F10047
:1002E000000000000000000000000000000000000E
:1002F00000000000000000000000000000000000FE
:1003000000000000000000000000000000000100EC
:10031000000000000000F300F200F1000000000007
:1003200000000000000000000000000000000000CD
:1003300000000000000000000000000000000000BD
:1003400000000000000000000000000000AE00AF50
:1003500000DA0281FFD9F1DB20A4A62EAF00A0C0F5
:1003600000A1C800AED580A81FD300408D14200086
:100370000E034C0069006C00790035003800000065
:1003800010036C0069006C00690075006D0073005B
:1003900000000403090409022200010100A0FA0977
:1003A00004000001030101000921110100012240A4
:1003B000000705810308000A12011001000000086F
:1003C000D8042DEB00010102000105010906A1017D
:1003D000050719E029E71500250195087501810237
:1003E0009501750881010507190029FF150026FFF1
:1003F0000095067508810005081901290595057500
:10040000019102950175039101C011241FBECFEF28
:10041000DAE0DEBFCDBF04B603FE27C080914504FD
:1004200090914604A0914704B09148048730904BC6
:10043000A740B04BD1F4109245041092460410929C
:1004400047041092480414BE84B7877F84BF0FB658
:10045000F894A89580916000886180936000109264
:1004600060000FBEE0E0F8E3099511E0A0E0B1E024
:10047000ECE6F2E402C005900D92A633B107D9F77D
:1004800024E0A6E3B1E001C01D92A534B207E1F774
:100490000E94951B0C9434210C9400000C94520281
:1004A00081E0089581E0089508950C9454021F930B
:1004B000CF93DF9300D000D01F92CDB7DEB7498332
:1004C0005A836B8330918E0189819A81311114C0D6
:1004D000662359F0222349F00E941017182F682F25
:1004E00089819A810E94B71603C00E94E316182FD3
:1004F00069817A81812F04C00E94101769817A81F5
:100500000F900F900F900F900F90DF91CF911F9150
:100510000C941603FC01262F408151816281738166
:1005200084810C945702CF93DF93EC0160E00E942A
:100530008A02BE01DF91CF910C9455020E94DF0424
:100540000C9419050C94150508950E9440120E9400
:10055000A4022FEF84E39CE0215080409040E1F71B
:1005600000C000000C94771A0F931F93CF93DF9372
:100570008C0161E00E948A02EC01B8010E944E02E7
:100580008823F1F1B801CE010E945B098823C1F1F3
:10059000B801CE010E94AD09882391F1B801CE01C6
:1005A0000E94D80A882361F1F8018281882309F129
:1005B000CB358DE5D807C1F050F4C115FCE5DF0758
:1005C00081F0CF3DDC45A9F40E940E1919C0CC354D
:1005D000EDE5DE0761F0CD35DD4559F40E94A31746
:1005E00008C00E94A5020CC00E94AC1702C00E9465
:1005F000AF17C801DF91CF911F910F910C9450025A
:1006000080E0DF91CF911F910F91089508950C9490
:10061000060381E008950C940903CF93C82F0E942C
:1006200007038C2F0E940B03CF9108952CE3829F28
:10063000C0011124FC0126E0729FE00DF11D112480
:10064000E60FF11DEE0FFF1FEC50FF4F85919491C7
:100650000895CF93DF930E9416030E940704EC01D4
:10066000811523E5920798F5811542E5940708F076
:1006700094C0C11580E2D807C0F4C11521E0D207AB
:1006800008F0C1C0C53AD10548F4C430D10508F01E
:10069000BAC0C130D10509F4B6C0B3C0CE01805E86
:1006A0009109089708F4AFC0ACC0C11541E5D40763
:1006B00008F06EC0C11580E5D80708F04DC0C1151F
:1006C00020E4D20708F49DC0DF70D06A9CC0811579
:1006D00046E5940700F5C11585E5D80708F077C011
:1006E000C11524E5D20708F06DC0CE0183709927AB
:1006F00021E030E002C0220F331F8A95E2F78C2FF1
:100700008695869540E2849FC0011124E901C82B9B
:10071000D92BDA6878C081154AE5940778F4C115B9
:1007200089E5D80708F05DC0C11528E5D20708F4AF
:1007300068C0DC2FCC27C06FD06A65C09056811589
:10074000904208F05EC08D2F8F710E949B04DD27C0
:10075000D0628F71D82B57C0CE0174E096958795E3
:100760007A95E1F783709C2F937021E030E002C00E
:10077000220F331F9A95E2F73C68382BCF70C6954D
:10078000C69580E2C89FE0011124C22BD32B3BC049
:10079000DC2FCC27C16FD06A36C08370992721E047
:1007A00030E002C0220F331F8A95E2F78C2F869526
:1007B000869540E2849FC0011124E901C82BD92B02
:1007C000DC6821C0DC2FCC27C46FD06A1CC08C2F02
:1007D0000E949B048F71C82FD0E0DC2FCC27D06201
:1007E00012C08C2F8F700E949B0494E0D695C79501
:1007F0009A95E1F7CF70D0E0DC2FCC27D069C82BD9
:1008000002C0C0E0D0E0CE01DF91CF9108958238E0
:10081000910569F1B0F48133910509F46DC048F494
:100820008932910509F463C08A32910509F469C0DF
:1008300008958533910509F455C089339105B9F0C0
:100840000895833E910569F138F4803E9105B1F039
:10085000823E910509F10895863E9105A9F1873EF2
:100860009105B9F1843E910509F064C023C020913F
:10087000100220FD4FC021FD4DC00895809110024F
:1008800080FD44C08091110280FF44C0809110021D
:1008900084FD42C083EE4DC08091100282FF38C0BB
:1008A000F5CF8091100282FD33C08091110280FD4E
:1008B00031C0ECCF8091110281FF32C080911002D3
:1008C00084FD2AC087EE35C08091100283FF26C0C8
:1008D000F5CF8091100283FD21C08091110281FD2E
:1008E0001FC0ECCF8091100285FD1CC01DC08091FF
:1008F000100285FD19C016C08091100286FD16C039
:1009000017C08091100286FD13C010C089E311C08A
:1009100082EE0FC080EE0DC080E00BC086EE09C0F5
:1009200084EE07C089E205C085E303C08AE201C006
:1009300081E390E008959091100292FF0DC0282F5E
:100940002871283019F4877F846006C0282F24710D
:10095000243011F48B7F886093FF0DC0282F2871FD
:10096000283119F4877E846106C0282F2471243130
:1009700011F48B7E88612091110220FF0DC0382F69
:100980003871383019F4877F816006C0382F317193
:10099000313011F48E7F886021FF0DC0282F28711F
:1009A000283119F4877E816106C0282F21712131F9
:1009B00011F48E7E886194FD877E089508950E94CB
:1009C0006618811102C00E940E190E94711880934E
:1009D00004020E94791890931102809310020E94E1
:1009E000DE040E947518682F70E080E090E00E949D
:1009F000B9156091EF017091F0018091F101909132
:100A0000F2010C94F115E82FF0E0E45EFD4F8081D7
:100A10000895089580EA8A95F1F7089500C0089531
:100A20000C940A0508950C9412050C9413050C946B
:100A300012050C941705F894E82FE295EF70F0E09A
:100A400031A1282F2F7081E090E001C0880F2A95F6
:100A5000EAF7982F9095932391A392A1892B82A3D3
:100A60007894089508950C9432050F931F93CF93B3
:100A7000DF930E94BE0680910001809100018111E8
:100A800002C095E001C090E09093270285E0891BA9
:100A90008093260286E60E941B0587E90E941B05BB
:100AA00086EC0E941B0584E30E941B0585E30E94DF
:100AB0001B05CDE1D1E003E211E089910E941B0505
:100AC0000C171D07D1F7E2E1F2E0ACE1B2E01192C0
:100AD0001D9282E0EC31F807D1F785E00E946D06A7
:100AE0000E949E02DF91CF911F910F910C94C80636
:100AF0000F931F93CF93DF9300D000D01F92CDB7F9
:100B0000DEB70E94A40660912702882309F442C040
:100B10008E010F5F1F4F85E0F80111928A95E9F76A
:100B2000862F90E0B801845E9D4F0E94150B8111C5
:100B300016C0809138018F5F80933801863030F184
:100B4000E0912602F0E0E45EFD4FD801CE0106966A
:100B500011921D92A817B907D9F711E018C0109289
:100B60003801A0912602B0E0A45EBD4FF8019E01BD
:100B70002A5F3F4F10E081919C91981711F08C9360
:100B800011E01196E217F307B1F701C010E00E94DF
:100B9000A2020DC070E0645E7D4F8091260290E05D
:100BA000845E9D4F0E94410B0E94330510E0812F0F
:100BB0000F900F900F900F900F90DF91CF911F919A
:100BC0000F9108958F929F92AF92BF92CF92DF9232
:100BD000EF92FF920F931F93CF93DF9383E2A82EA0
:100BE00081E0B82EC2E1D2E098E2E92E91E0F92E40
:100BF000912C01E010E06501F5018081F894E82F67
:100C0000E295EF70F0E021A18F70A80102C0440FBF
:100C1000551F8A95E2F7CA01922F982B91A392A1B2
:100C20008095892382A378940E940E05EDE1F1E07E
:100C300020E030E0812C4191A42FA295AF70B0E06C
:100C400090968C9190E04F7002C0959587954A954B
:100C5000E2F780FD07C0802F022E01C0880F0A94A2
:100C6000EAF701C080E0882A2F5F3F4F2630310528
:100C700011F75FEFA51AB50AF60180810E941B05E6
:100C80000E9410058881881619F0888281E001C0D1
:100C900080E0982A2196EA14FB0409F0ACCF609119
:100CA000270270E0645E7D4F292D45E082E192E0ED
:100CB0000E946E060E947805992011F081E090E074
:100CC000DF91CF911F910F91FF90EF90DF90CF9028
:100CD000BF90AF909F908F9008950895FF920F93CB
:100CE0001F93CF93DF938C01F62ED72FC42F22238F
:100CF00049F081E080933B010E94E91990933A0109
:100D00008093390180913B018823C1F080913901A2
:100D100090913A010E94011A069780F0EF2DFD2F65
:100D2000D8014C2F50E0CD01801B910B8417950703
:100D30001CF48D918193F7CF10923B01DF91CF91FD
:100D40001F910F91FF90089580913C0181110DC07A
:100D50000E94DF20811102C082E001C081E0809307
:100D60003C01823011F40E94DA2081E090913C0134
:100D7000913009F080E008950C94A4060E94BC060E
:100D8000809300010E94A40681110C94090B089520
:100D90000E94A406811102C00C940F0B0895EF92DB
:100DA000FF920F931F93CF93DF93EC017B0164E6D7
:100DB00070E088E70E94650B8C01EC0EFD1ECE15DD
:100DC000DF0561F017FD0AC0FE01849164E670E062
:100DD0000E94BC0B8C012196892B89F30E94400C48
:100DE000C801DF91CF911F910F91FF90EF9008956F
:100DF0000895E8E2F2E080E092E0DF019C011D92BC
:100E000021503040E1F7F0932F04E0932E048FEF50
:100E10009FEF909363018093620108950E94F8060A
:100E200080935E0180FD02C080E801C080E2809373
:100E30005D010E945F0B6DE070E083E693E00E942D
:100E4000CF06892B11F080E0089580915E0163E068
:100E500070E081FD03C080E693E002C08DE593E081
:100E60000E94CF06892B79F76DE070E080E593E072
:100E70000E94CF06892B39F70E94F519DC01CB01BE
:100E8000805A9541AF4FBF4F80932A0490932B0413
:100E9000A0932C04B0932D040E94F90681E0809366
:100EA00061018093600110925F01089520915D01BE
:100EB00036E0839FC0011124629F800D911D112493
:100EC000811522E0920714F080E090E0885D9D4F4C
:100ED00090932F0480932E040895809161018823BC
:100EE000F9F00E94F519DC01CB01805A9541AF4F12
:100EF000BF4F80932A0490932B04A0932C04B093AB
:100F00002D048091600181110BC062E070E08EE4DD
:100F100093E00E94CF06892B19F481E08093600151
:100F20008091600108956F927F928F929F92AF920D
:100F3000BF92CF92DF92EF92FF920F931F93CF93C6
:100F4000DF9380916101882309F4DCC02091620164
:100F5000309163012115310509F4D4C080915F01FE
:100F60008111D0C061E070E0082F10E03B01082E35
:100F700002C0660C771C0A94E2F7A90146215721AA
:100F8000452B11F48F5FF0CF90915E01980165E0E1
:100F9000220F331F6A95E1F790FD12C08295880FEA
:100FA000807680930301220F232F221F330B31956C
:100FB00020930601815E809304011092070112C004
:100FC00045E0369527954A95E1F7220F220F220F2B
:100FD0002093030110920601295F2093040183E00E
:100FE0008093070124E630E047E050E061E071E0E3
:100FF00088E70E94EC0B892B09F084C080915E0188
:1010000080FD23C0A80195E0440F551F9A95E1F794
:10101000485D5D4F04E610E020E230E060E488E7E0
:101020000E94130C892B09F06DC00E946D07E3012B
:10103000C095D0958091620190916301C823D92316
:10104000D0936301C09362015DC080E2EDE3F1E003
:10105000DF011D928A95E9F785E0000F111F8A953F
:10106000E1F7A1E3B1E04DE251E0992493942D9191
:10107000EA018991AE01B801680F711D685D7D4F6D
:1010800030E0235C3E4FF90197E07F01E21AF30A5A
:10109000A92C01C0AA0CEA94EAF77B01B12CE70164
:1010A00089917E018A21892E8B18D82DD770CD2E5B
:1010B0000D2E000CDD08C82F01C0CC0FDA95EAF721
:1010C000D194C194D108D7E0CD22DD2401C086950A
:1010D000CA94EAF78C2BD0808D298083B39488E062
:1010E000B812DDCF915031969F3F79F6C1E0A5331C
:1010F000BC0709F0BCCF04E610E020E230E04DE38D
:1011000051E08CCFDF91CF911F910F91FF90EF9025
:10111000DF90CF90BF90AF909F908F907F906F9017
:1011200008958091610190916001882389F099234D
:1011300069F062E070E08CE493E00E94CF06892BB6
:1011400019F0809160010895109260019091600102
:1011500081E08927089508950F931F93809161017D
:10116000882399F180912804909129040E94011A02
:10117000C29760F00E94E919909329048093280493
:1011800060E080E00E9456070E94AB080E9493072F
:10119000809160018823C9F00E94F51900912A040A
:1011A00010912B0420912C0430912D04DC01CB01F3
:1011B000801B910BA20BB30B8F3F9F4FAF4FBF47CD
:1011C00020F41F910F910C9491081F910F91089595
:1011D0000F931F93CF93DF93C42FD22FFC018281F3
:1011E0008823C9F0409366010E94E9199093650134
:1011F0008093640180E28C0F883008F057C0C7707C
:1012000081E001C0880FCA95EAF7DF91CF911F9165
:101210000F910C94F10F80916601481330C08091BA
:101220006401909165010E94011A883C910538F58E
:1012300010E21D0FCD17B9F080E28C0F883040F41A
:10124000C77081E001C0880FCA95EAF70E94F80FC5
:10125000183028F581E09D2F977001C0880F9A956E
:10126000EAF70E94F10F802F0E94E80F1830F0F487
:10127000D77081E001C0880FDA95EAF70AC080E2F2
:101280008C0F883098F4C77081E001C0880FCA9530
:10129000EAF7DF91CF911F910F910C94F80F802FF7
:1012A000DF91CF911F910F910C94E80FDF91CF91B7
:1012B0001F910F9108950F939C01CB01243F4CE5A2
:1012C000340731F188F4293DFCE53F07D9F02A3D88
:1012D0004CE5340779F1283D3C45A9F506E221EEBD
:1012E00041EE68ED7CE52BC0263FFCE53F07E1F0D1
:1012F000A8F0273F3C4539F507E225EE46EE67EFBB
:101300007CE51DC007E225EE45EE69ED7CE517C0E2
:1013100006E221EE40EE64EF7CE511C007E225EE27
:1013200044EE65EF7CE50BC006E221EE42EE66EF8F
:101330007CE505C008E221E045EE6AED7CE50E940F
:10134000E80880E008C0FC018281882319F010922F
:10135000660101C081E00F910895CF93DF93EC0106
:10136000FB018281882309F41FC1C230FCE5DF073D
:1013700008F41BC1C6319CE5D90738F09E012B5FEC
:101380003C452930310508F010C10E94791890932E
:10139000110280931002C031ECE5DE0709F4C3C0EE
:1013A00008F041C0C8308CE5D80709F49AC0F0F4C1
:1013B000C430ECE5DE0709F487C068F4C2308CE580
:1013C000D80709F477C0C330DC4509F0E3C0809149
:1013D0001002826076C0C630ECE5DE0709F46EC00C
:1013E00008F07BC08091100288606BC0CC308CE527
:1013F000D80709F485C068F4CA30ECE5DE0709F4C3
:1014000074C008F079C00E94401280911002806878
:1014100058C0CE308CE5D80709F476C008F07FC0FC
:10142000809110028BC0CC3FECE5DE0709F44FC081
:1014300018F5C3318CE5D80709F47DC078F4C131C3
:10144000ECE5DE0709F473C0C231DC4509F0A2C047
:101450000E944012809110028F7733C0C5318CE515
:10146000D80709F472C008F486C0CB3FDC4509F008
:1014700091C0809111023EC0C115FDE5DF0709F45E
:101480005FC058F4CE3F9CE5D90709F444C008F486
:101490003FC08091110282602DC0C230FDE5DF07A0
:1014A00009F475C008F45DC0C330DD4509F072C0B1
:1014B00080E06EC080911002816003C080911002B4
:1014C00080618093100266C08091100211C08091EB
:1014D00011028260809311025DC0809110028062CF
:1014E000F0CF809110028064ECCF80911002886070
:1014F0008460E7CF8160EECF809110028E7FE1CFD4
:10150000809110028D7FDDCF80911002877FD9CF2F
:101510008091110218C0809111028D7FDBCF8091E4
:1015200010028F7ECECF809110028F7DCACF809126
:1015300010028F7BC6CF80911002877F8B7FC1CF37
:10154000809111028D7F8E7FC5CF8091100282FB2A
:10155000222720F991E0922790FB82F990FB83F9F2
:10156000B0CF80911102982F909591708E7F892B2A
:1015700090FB81F9AFCF0E9440128091100287FB4F
:10158000222720F991E0922790FB87F99ACF81E0FA
:101590000E94101980911002909111020E948A18E5
:1015A0000E94401280E001C081E0DF91CF91089558
:1015B000CF93DF9386319C4541F5EB010E94B21732
:1015C000982F8A812091100130911101882379F0A0
:1015D0009A7A81E009F480E080936701911102C05A
:1015E00069E201C065E3C9010E9457190AC08091F0
:1015F0006701811102C069E201C065E3C9010E946F
:1016000059190E94F71780E001C081E0DF91CF9166
:10161000089561E070E088E091E00C94A40C61E032
:1016200070E088E091E00C94AD0CCF93DF93D62F5F
:10163000C72F80E090E00E94860D892BF1F4ED2FFA
:10164000FC2F80E090E0DC01A359BE4F2C91219348
:10165000019685309105B9F70E945C1ADC01CB0137
:101660000296A11DB11D8093690190936A01A09318
:101670006B01B0936C0181E001C080E0DF91CF91FC
:101680000895CF93DF93D62FC72F60916901709192
:101690006A0180916B0190916C010E943F1AED2FBD
:1016A000FC2F80E090E02191DC01A359BE4F2C93E8
:1016B000019685309105B9F7DF91CF910895109289
:1016C000B9008CE08093B8000895EF92FF920F93D9
:1016D0001F93CF93DF93182FEB011092BC0084EA85
:1016E0008093BC000E94E9197C018091BC0087FDB9
:1016F0000EC0CF3F8FEFD807C1F30E94E9198E19B2
:101700009F098C179D0788F38EEF9FEF2EC0809165
:10171000B900887F883041F08091B900887F80319E
:1017200019F08FEF9FEF21C01093BB0084E88093E6
:10173000BC000E94E9198C018091BC0087FD0CC09F
:10174000CF3F8FEFD807C1F30E94E919801B910B9F
:101750008C179D0788F3D8CF8091B900887F883196
:1017600011F08034F1F680E090E0DF91CF911F918D
:101770000F91FF90EF9008950F931F93CF93DF93F6
:10178000EB018093BB0084E88093BC000E94E919C0
:101790008C018091BC0087FD0EC0CF3F8FEFD80732
:1017A000C1F30E94E919801B910B8C179D0788F3E8
:1017B0008EEF9FEF0CC02091B900287F81E090E070
:1017C000283211F480E090E0919581959109DF91A4
:1017D000CF911F910F910895CF92DF92EF92FF92D8
:1017E0000F931F93CF93DF936B018A017901B901A6
:1017F0000E94650BE6010C0D1D1DC017D10761F499
:1018000024E92093BC00DF91CF911F910F91FF90AD
:10181000EF90DF90CF90089597FDF2CFB7018991B7
:101820000E94BC0BEACFCF92DF92EF92FF920F9310
:101830001F93CF93DF93C62F6A017901B8010E94ED
:10184000650B97FD11C0B8018C2F0E94BC0BE601FF
:10185000EC0CFD1CCE15DF0539F097FD05C0B80175
:1018600089910E94BC0BF6CF24E92093BC00DF9144
:10187000CF911F910F91FF90EF90DF90CF9008953F
:1018800084E98093BC0008958EE14A9B02C0815098
:10189000E1F74A9BFECF08955A9880E28A95F1F7C6
:1018A0005A9A0895FC012AE02A95F1F790E020E089
:1018B00080E031E0261779F040E14A95F1F7880F92
:1018C0004A9B02C08160932700C0000040E14A9516
:1018D000F1F72F5FEFCF20E12A95F1F729B100C092
:1018E000000030E13A95F1F722FB222720F99227F8
:1018F0002081920F90830895EF92FF920F931F9390
:10190000CF93DF931F92CDB7DEB719828C017C0194
:10191000E60EF11C0E151F0559F00E94440C68E0FC
:10192000CE0101960E94520CF80181938F01F2CFF3
:1019300081E09981911180E00F90DF91CF911F910B
:101940000F91FF90EF90089590937401809373012D
:1019500060937201529A5A9A0895909374018093F9
:1019600073016093720152985A9AEA9AE9E6F0E09C
:1019700080818F7C80830895615091E001C0990F30
:101980006A95EAF720E031E0992361F0492F482376
:1019900019F05A9A232701C05A9840E24A95F1F764
:1019A0009695F2CF222311F05A9A01C05A9880E2FC
:1019B0008A95F1F75A980895FF920F931F93CF934A
:1019C000DF93EC018C01060F111DC017D10741F008
:1019D000F9900E944C0C68E08F2D0E94BC0CF5CF52
:1019E000DF91CF911F910F91FF9008951F920F9259
:1019F0000FB60F9211240F931F932F933F934F9382
:101A00005F936F937F938F939F93AF93BF93EF9366
:101A1000FF93CF93DF931F92CDB7DEB719820E9459
:101A2000440C67E0CE0101960E94520C382F369587
:101A300036953695932F96959570232F2570920F96
:101A4000292F2370969596958770920F891348C019
:101A50008981811145C080917201831708F440C0CB
:101A600080E18A95F1F75A9A529AA2E0AA95F1F785
:101A700000C00091730110917401B8E03B9F000D0C
:101A8000111D11245A98F8016581662321F0868181
:101A900097810E94DC0C0E944C0CF0E1FA95F1F762
:101AA0005A9852985A9A80E18A95F1F7D80112967D
:101AB0006C911297662369F013968D919C911497FF
:101AC0000E947C0CD801ED91FC91811105C082E04F
:101AD00004C0D801ED91FC9188E080830E94440C01
:101AE0000F90DF91CF91FF91EF91BF91AF919F91B7
:101AF0008F917F916F915F914F913F912F911F91A6
:101B00000F910F900FBE0F901F9018950F931F937A
:101B1000CF93DF932091720130E0281739070CF43E
:101B200071C09C0193E0220F331F9A95E1F7C09199
:101B30007301D0917401C20FD31FF894529A5A982E
:101B400045E04A95F1F70000982F969595708570BD
:101B5000890F982F937086958695890F8901082B98
:101B60000E944C0C84E08A95F1F700C067E0802F5A
:101B70000E94BC0C40E14A95F1F752985A9A4A9952
:101B800002C000C0FCCF87E090E04A9B0EC00197E6
:101B900051F4529A5A9AE881F98181E080837894CD
:101BA00081E090E031C000C0F0CF6D81662381F00C
:101BB0008E819F810E947C0C81110AC0529A5A9A90
:101BC000E881F98182E08083789482E090E01CC013
:101BD0000E94440C80E28A95F1F75A98529A40E1AB
:101BE0004A95F1F76A81662321F08B819C810E94DE
:101BF000DC0C0E944C0CE881F9811082789480E022
:101C000090E002C084E090E0DF91CF911F910F91AE
:101C1000089590937A01809379010895E091790174
:101C2000F0917A01309721F00190F081E02D099434
:101C300080E00895E0917901F0917A01309721F0E8
:101C40000280F381E02D099408952091770130916D
:101C500078012817390771F0909378018093770104
:101C6000E0917901F0917A01309721F00680F781B7
:101C7000E02D09940895209175013091760128177F
:101C8000390771F09093760180937501E0917901A5
:101C9000F0917A01309721F00084F185E02D0994CC
:101CA00008950E94F51960938A0170938B018093C7
:101CB0008C0190938D0160938601709387018093CE
:101CC000880190938901089585B7806885BF85B79D
:101CD000806885BF08950C94A40608950C946D0E39
:101CE0000C946D0E0C94700E0C946D0E0C94740E7E
:101CF0000C946D0E0E94640E84E698E10E94881A8E
:101D00000E94780E0C94760E0E946E0E0C946D0E4E
:101D10000E94E0190E94361A0E94350580E00E9458
:101D20000E070C94720E8F929F92AF92BF92CF9239
:101D3000DF92EF92FF920F931F93CF93DF93CDB774
:101D4000DEB72A970FB6F894DEBF0FBECDBF0E9454
:101D5000E205982E81110E94510E8CE7A82E81E099
:101D6000B82E00E010E0802E802F0E940305D82EB0
:101D7000F501C1905F01C826B1F40F5F1F4F0A3013
:101D8000110589F78FEF89838A831B820E94E919E5
:101D90008160782F9D838C8349815A816B818D81ED
:101DA0000E94380F2FC08091040281FD0E94090516
:101DB000E12CFF24F3948C2D8F21F1F00E946B0E07
:101DC000882399F0EE828F82DF2081E009F480E0A1
:101DD00088870E94E9198160782F9A8789874E81C8
:101DE0005F8168858A850E94380FF801E458FE4FAC
:101DF0008081F826F08206C0E394FF0CF6E0EF1233
:101E0000DACFBBCF0E94AC0891100E946D070E94F0
:101E10000E0E90917B018917C1F00E940E0E8093E7
:101E20007B012A960FB6F894DEBF0FBECDBFDF91BF
:101E3000CF911F910F91FF90EF90DF90CF90BF90C7
:101E4000AF909F908F900C940D032A960FB6F89444
:101E5000DEBF0FBECDBFDF91CF911F910F91FF90DD
:101E6000EF90DF90CF90BF90AF909F908F900895AC
:101E7000DF92EF92FF920F931F93CF93DF93CDB733
:101E8000DEB72B970FB6F894DEBF0FBECDBFF42E92
:101E9000052F162FE72ED82E61110E94D217FE01B2
:101EA000319686E0DF011D928A95E9F77E2D4F2D50
:101EB000502F612F8D2D9E810E94F9142B960FB605
:101EC000F894DEBF0FBECDBFDF91CF911F910F9170
:101ED000FF90EF90DF900895FC01808191810E9436
:101EE00052170895CF93882371F1C82F8CEF8C0F70
:101EF000813AD0F46C2F80911001909111010E94D1
:101F00002119882349F06C2F8091100190911101C3
:101F10000E9459190E94F7176C2F8091100190911F
:101F200011010E9457190CC080E28C0F883058F4C0
:101F3000C77081E001C0880FCA95EAF70E94B51703
:101F4000CF910C94F717CF910895882349F1682F0A
:101F50008CEF860F813A38F4809110019091110135
:101F60000E9459190CC080E2860F883050F46770C7
:101F700081E001C0880F6A95EAF70E94BB170C94B4
:101F8000F7178BE5860F833020F480E090E00C9407
:101F9000250E685A673120F480E090E00C943B0EE7
:101FA00008951F93CF93DF93182FEB010E94720FB8
:101FB000209741F08FE99FE00197F1F700C0000002
:101FC0002197F6CF812FDF91CF911F910C94A50F10
:101FD000893319F060E070E002C060E570E00C94B5
:101FE000D10F882321F00E94B5170C94F71708959C
:101FF000882321F00E94BB170C94F7170895CF9205
:10200000DF92EF92FF920F931F93CF93DF937C01A8
:10201000D62FC72FFC010281158112951F700E94D7
:102020008A17882399F0002389F08C2F807F8034D1
:1020300021F080E28D0F883048F082E00E9447183E
:102040000E948A1791E0D82ED92601C0D12CCC2E1F
:10205000C2948FE0C8228C2D90E08C30910508F05E
:102060008DC1FC01EA5AFF4F0C94EC208C2F807F2D
:10207000CF70882311F0C295C07F002399F0CC2344
:1020800009F468C180E28D0F883010F0D11104C0CE
:102090008C2F0E94B51703C08C2F0E94C5170E9479
:1020A000F71758C18D2F0E94A50FCC2309F466C1E4
:1020B00080E28D0F883010F0D11104C08C2F0E9467
:1020C000BB1703C08C2F0E94CB170E94F71756C175
:1020D0008C2F807FCF70803211F0C295C07FDD23BE
:1020E00019F0D130C9F022C0002371F0112341F062
:1020F000113031F40E94D8178C2B0E94E0173EC19A
:102100000E94D8178C2B1DC0112319F0113009F42F
:1021100035C10E94ED1725C0002321F0163008F0CC
:102120002DC10EC0153008F029C11BC0002361F07D
:10213000112331F0F701858180FF0CC18F708583F9
:102140008C2F0E94F10F1AC1112359F0D93309F0D5
:1021500012C1FFEF07EE13E0F15000401040E1F72D
:1021600008C18C2F0E94F80F09C18C2F837009F0D1
:1021700047C0011107C12D2F229526952770220FE8
:10218000220F6D2F6F70862F90E0A0E0B0E0022E3E
:1021900004C0880F991FAA1FBB1F0A94D2F7D4FF4F
:1021A00010C04FE050E060E070E004C0440F551FE5
:1021B000661F771F2A95D2F74095509560957095C8
:1021C00003C040E050E0BA01C695C695C3708A01CD
:1021D0009B01082B192B2A2B3B2BC901B801C230BC
:1021E00049F058F4C13019F00E94CD15CBC00E94BF
:1021F000BB15C8C00E94DF15C5C00E94B915C2C07A
:10220000002319F08C2F817001C08695882309F472
:10221000B9C02D2F229526952770220F220F6D2FE2
:102220006F70862F90E0A0E0B0E0022E04C0880F0F
:10223000991FAA1FBB1F0A94D2F7D4FF10C04FE00A
:1022400050E060E070E004C0440F551F661F771F28
:102250002A95D2F7409550956095709503C040E05F
:1022600050E0BA01C695C695C3708A019B01082B40
:10227000192B2A2B3B2BC901B801C23049F058F465
:10228000C13019F00E9492167DC00E9480167AC05B
:102290000E94A41677C00E94F31574C0CF7000236B
:1022A00039F08C2F0E9419168D2F0E94F10F6AC0F1
:1022B0008D2F0E94F80F8C2F0E943A1663C0D23FD8
:1022C00001F128F4D03F41F0D13FA1F03FC0D33F0E
:1022D000F9F0D43F39F13AC0002341F0153008F04D
:1022E0004DC08C2F8F710E945F1648C0163008F0C9
:1022F00045C0F7CF002339F08C2F8F710E9419163B
:102300003DC00023C9F38C2F8F710E943A1636C04E
:10231000002329F08C2F8F710E9404162FC00E9479
:10232000FF152CC0002349F0CF718C2F0E94191685
:1023300063E08C2F0E942C1821C081E00E94471876
:102340001230E0F082E00E94471818C0002331F0FC
:10235000112391F28D2F0E94720F10C0112399F258
:10236000D93349F41FEF27EE33E0115020403040BD
:10237000E1F700C000008D2F0E94A50F88EF8C0DA3
:10238000843020F40E940E0E0E940D03DD20C9F05F
:102390000E94861780FD15C0F70112820E948017E7
:1023A0000E941916C7010E9402120E948017DF9135
:1023B000CF911F910F91FF90EF90DF90CF900C94F1
:1023C0003A16DF91CF911F910F91FF90EF90DF9020
:1023D000CF9008950F931F93CF93DF93EC01688103
:1023E00079818A810E945D178C010E94B6160E9435
:1023F000A715B801CE010E94FF0FDF91CF911F9169
:102400000F910895CF93DF93EC01988189812B81FF
:102410003C81232B31F08F3F31F481E09F3F19F451
:1024200003C081E001C080E080FD19C0CE010E94A0
:10243000B40281110CC00E948A17882381F08A811E
:10244000882369F082E0DF91CF910C944718CE0188
:102450000E94EA11CE01DF91CF910C949302DF919B
:10246000CF9108950E94D2170E94D5170C94F717A8
:1024700080911001909111010E945B190C9432120D
:102480000E94C2170C943812E92FE295EF704E2F7C
:1024900050E0FA013297EE30F105B0F4EE59FF4FFB
:1024A0000C94EC20803F91F018F4883E68F40EC044
:1024B000843F51F40BC0883E48F0813F29F406C0A8
:1024C00093FB882780F9089580E0089581E00895BE
:1024D0000E9452170E9444120895CF93DF9300D0B8
:1024E00000D01F92CDB7DEB70F900F900F900F90D6
:1024F0000F90DF91CF910895CF93DF9300D000D05C
:1025000000D0CDB7DEB726960FB6F894DEBF0FBE6B
:10251000CDBFDF91CF9108951F93CF93DF93C091EB
:102520008F0116E080919001C81799F0D0E01C9FB0
:10253000F0011D9FF00D1124EF56FE4F4081518197
:1025400062817381848195810E947C122196C7707B
:10255000E9CFDF91CF911F9108954091C101509132
:10256000C2016091C3017091C4018091C501909135
:10257000C6010C947C120F931F93CF93DF9380912D
:10258000C60182958F7009F05DC08091C3018823D8
:1025900009F458C080918F01109190016091C101A0
:1025A0007091C201C091C401D091C50191E06F3F0B
:1025B00009F090E0292F06E0811709F443C0209725
:1025C00021F07F3F21F030E003C031E001C0322F25
:1025D00090E030FD34C0089FF001099FF00D1124F8
:1025E000DF01AF56BE4F11963C911197371327C0AC
:1025F0003C91361324C012963C91129731111FC0A2
:1026000013964D915C9114974C1B5D0B483C510502
:10261000B0F48091C6018F7080618093C601EA5644
:10262000FE4F80818F708061808381EC91E00E94F9
:102630000212DF91CF911F910F910C948C12019691
:102640008770BACFDF91CF911F910F9108959F921C
:10265000AF92BF92CF92DF92EF92FF920F931F93B0
:10266000CF93DF93CDB7DEB761970FB6F894DEBF97
:102670000FBECDBF8C0185E0F801DE011D960190F3
:102680000D928A95E1F7F80140815181E2809091A5
:10269000C1016091C2012091C4013091C501211591
:1026A000310531F06F3F31F481E09F3F19F403C0F1
:1026B00081E001C080E0F82FF1709F2E80FD46C1BF
:1026C000F801A380B48081ECC82E81E0D82EF09070
:1026D000C301F501E21BF30BFF2009F4DFC0809179
:1026E000C601E83CF10508F09BC0282F207F09F0C7
:1026F00052C0561313C0491311C0FE2CE1100EC076
:102700008F7080618093C6010E94AD12C6010E9445
:1027100002128091C601F801858358C1AB2831F0BF
:102720005F3F31F481E04F3F19F403C081E001C005
:1027300080E080FD03C081E08E2502C080E090E053
:10274000F82FF170FF2E80FF1CC080918F01209127
:10275000900136E0821709F417C190E0389FF0012C
:10276000399FF00D1124EF56FE4F6181561306C0BC
:102770006081461303C06281E61203C00196877030
:10278000E9CFFE2CEE2009F421C18091C6018160C1
:102790008093C6015AC0561306C0491304C0E11005
:1027A00002C0F8019FC04D875E878D859E850E947F
:1027B0006812882379F1EE2069F12091C601822FF9
:1027C00082958F7090E0029774F08091C101909192
:1027D000C20198878F831986BB86AA862C87CE0173
:1027E00007960E94021286E0F801A1ECB1E0019088
:1027F0000D928A95E1F70E94BB120E94AD120DC0A6
:10280000561729F14D875E878D859E850E94681237
:1028100081112CC0C8010E940212FF24F394D6C07B
:10282000282F207F69F77A2DB98AA88A6E2D898989
:102830000E946D1281EC91E00E94021286E0F60186
:1028400011928A95E9F70E94AD12F12CBFC049138D
:10285000D9CFE110D7CFF8018583C8010E940212B9
:1028600086E0F60111928A95E9F7B0C0EE2091F268
:102870002091C601822F82958F7090E002970CF410
:10288000B2CF8091C1019091C2019A8389831B824A
:10289000BD82AC822E83CE010196A3CFE83CF10528
:1028A00008F047C0FE2CEE2009F4B4CF561330C018
:1028B00049132EC02091C60120FD21C0822F829590
:1028C0008F70482F50E041155105C9F0F80125835C
:1028D0004F30510541F08F5F982F9295907F822F56
:1028E0008F70892B8583C8010E94021286E0F8014F
:1028F000A1ECB1E001900D928A95E1F742C086E02B
:10290000F801A1ECB1E001900D928A95E1F75EC06B
:102910004D875E878D859E850E946812811163CFE9
:102920008091C60181608093C601C8010E94021295
:102930004DC07A2DB98AA88A6E2D89890E946D12A0
:1029400086E0F60111928A95E9F71BC0EE2009F4A2
:1029500061CF4D875E878D859E850E946812F82E17
:10296000882309F457CF86E0F801A1ECB1E001908B
:102970000D928A95E1F781EC91E00E946C0F0E9424
:10298000BB120E94AD1222C04D875E878D859E8549
:102990000E945217292F22952F70223028F49F7001
:1029A00039F0811105C00BC0243028F49F7049F420
:1029B000805E883020F0C8010E9402129F2CF92C02
:1029C00005C0F8019581907F99F7F9CF8F2D619619
:1029D0000FB6F894DEBF0FBECDBFDF91CF911F9130
:1029E0000F91FF90EF90DF90CF90BF90AF909F90AE
:1029F00008951F93CF93DF93CDB7DEB72C970FB613
:102A0000F894DEBF0FBECDBF4F83588769877A87A2
:102A10008B879C87CE0107960E9427138823D1F0CD
:102A20009F8188852A853B85232B31F08F3F31F4A8
:102A300081E09F3F19F403C081E001C080E080FD88
:102A400047C04F81588569857A858B859C850E9412
:102A50007C123EC086E0FE013796DE0111960190A1
:102A60000D928A95E1F7FF81E8856A857B8561157E
:102A7000710531F0EF3F31F481E0FF3F19F403C0FD
:102A800081E001C080E080FD23C02091900130E012
:102A9000C90101968770992740918F0150E08417F2
:102AA0009507F1F1F983EA837D836C8396E0929F29
:102AB000D001939FB00D1124AF56BE4FFE01319649
:102AC00001900D929A95E1F7809390010E948C12EB
:102AD00016E080918F0190919001891771F1189FF4
:102AE000C00111248F569E4F0E942713882329F17D
:102AF000E0918F011E9FF0011124EF56FE4F40819F
:102B0000518162817381848195810E947C128091C0
:102B10008F0190E001968770992780938F01D9CF1C
:102B20000E9440121092900110928F01E1ECF1E0AE
:102B300086E0DF011D928A95E9F72C960FB6F8948E
:102B4000DEBF0FBECDBFDF91CF911F9108950895D5
:102B500008950C94A8150C94A9150E94AB156093C8
:102B6000F3017093F4018093F5019093F6010C94B6
:102B700032120C94AD150F931F930091F301109135
:102B8000F4012091F5013091F601602B712B822B1D
:102B9000932B1F910F910C94AD150F931F930091E0
:102BA000F3011091F4012091F5013091F6016023B9
:102BB0007123822393231F910F910C94AD150F93D2
:102BC0001F930091F3011091F4012091F5013091D0
:102BD000F60160277127822793271F910F910C948C
:102BE000AD150C94A8150E94F1156093EF01709338
:102BF000F0018093F1019093F2010C94321260E0A5
:102C000070E0CB010C94F3150F931F9341E050E05B
:102C100060E070E08A019B0104C0000F111F221FB9
:102C2000331F8A95D2F7C901B8011F910F910C94F7
:102C3000F3150F931F9341E050E060E070E004C093
:102C4000440F551F661F771F8A95D2F78091EF01B9
:102C50009091F001A091F101B091F2018A019B01E4
:102C6000082B192B2A2B3B2BC901B8011F910F915F
:102C70000C94F3150F931F9341E050E060E070E077
:102C800004C0440F551F661F771F8A95D2F74095E1
:102C90005095609570958091EF019091F001A09111
:102CA000F101B091F2018A019B01082319232A2323
:102CB0003B23C901B8011F910F910C94F3150F9399
:102CC0001F9341E050E060E070E004C0440F551FE6
:102CD000661F771F8A95D2F78091EF019091F001DE
:102CE000A091F101B091F2018A019B0108271927F7
:102CF0002A273B27C901B8011F910F910C94F315A6
:102D00000F931F930091EF011091F0012091F101B9
:102D10003091F201602B712B822B932B1F910F911D
:102D20000C94F3150F931F930091EF011091F00194
:102D30002091F1013091F2016023712382239323CA
:102D40001F910F910C94F3150F931F930091EF01B6
:102D50001091F0012091F1013091F201602771276B
:102D6000822793271F910F910C94F3150895292F13
:102D7000220F920F990F890FE82FE695E695E695B9
:102D8000877051E001C0550F8A95EAF785E0E89F0A
:102D9000F0011124E953FE4F20E030E070E0408163
:102DA000CB01022E02C0969587950A94E2F78170B6
:102DB000819584278523842781932F5F3F4F25307A
:102DC000310569F70895292F220F920F990F890F66
:102DD000682F669566956695982F977085E0689F31
:102DE000B001112440E050E080E0FB01E40FF51F4A
:102DF000E953FE4F208130E0092E02C03695279519
:102E00000A94E2F721703327042E01C0220F0A949E
:102E1000EAF7822B4F5F5F4F4530510531F7089538
:102E2000BF92CF92DF92EF92FF920F931F93CF93B7
:102E3000DF938C01C090EF01D090F001E090F101A0
:102E4000F090F2018091F3019091F401A091F501CD
:102E5000B091F601C82AD92AEA2AFB2ACFE1D0E0AC
:102E6000D701C6010C2E04C0B695A79597958795F6
:102E70000A94D2F780FD04C0219790F7B12C07C0C7
:102E8000BC2EB8018C2F0E9429030197A9F38B2D2A
:102E9000DF91CF911F910F91FF90EF90DF90CF9036
:102EA000BF900895CF93DF93EC010E941017BE01ED
:102EB0000E942903DF91CF9108951F93CF93DF9351
:102EC000EB0190918E01992321F0CB010E945217C2
:102ED00013C0882349F0CB010E941017182F682FC8
:102EE000CE010E94B71604C0CB010E94E316182F32
:102EF000BE01812F0E942903DF91CF911F91089578
:102F00008091F70185958595859508958091F701C4
:102F1000877008959091F701977081E009F480E03F
:102F200008959091110292FB222720F9281751F061
:102F300080FB92F9909311028091100290911102FE
:102F40000C948A1808958091110282FB882780F9D9
:102F500091E089270C94911781E00C94911780E0FF
:102F60000C94911780910302089590910302892B8C
:102F700080930302089580959091030289238093A2
:102F80000302089510920302089590910202892B82
:102F90008093020208958095909102028923809384
:102FA00002020895109202020895109201020895FB
:102FB0008091F801089508950C94DB170C94DC17A8
:102FC0009091110292FD08C09091F801981721F09C
:102FD0008093F8010C94DE1708958091F8018823FE
:102FE00029F01092F80180E00C94DE170895E0912A
:102FF0001001F0911101809103028083E091100192
:10300000F0911101908180910202892B8083E091DF
:103010001001F0911101908180910102892B808330
:103020008091F801882381F0E0911001F091110165
:103030009081892B808380911001909111010E94D1
:10304000151981110E94ED178091100190911101C5
:103050000C941A0E0C94DB179091110292FD10C083
:1030600098E0899F90011124262B2093F7010E945C
:1030700019168091F7018595859585950C942A18E8
:103080000C9419161092F70180E00C942A182091E4
:10309000F701809582238093F701982F977041F470
:1030A00030E0482F082E000C550B2417350721F46B
:1030B0009091110292FF07C08595859585950E9494
:1030C0003A160C944218089580E0089580E090E04C
:1030D0000E94FA2021E08A3E9E4F09F020E0822FD4
:1030E000089582E090E00C94F22083E090E00C944C
:1030F000F220CF9384E090E00E94F220C82F82E279
:1031000090E00E94F2202C2F30E0A901582BCA0138
:10311000CF910895CF93C92F682F84E090E00E944B
:1031200000216C2F82E290E0CF910C940021AB0142
:10313000BC018FE090E00C941221AB01BC0183E153
:1031400090E00C94122160E070E0CB010C949D188B
:1031500060E070E0CB010E9497180C94A3186AEE0F
:103160007EEF80E090E00E941E2160E082E090E02F
:103170000E94002160E083E090E00E940021109214
:10318000F3011092F4011092F5011092F60160E043
:1031900084E090E00E94002160E082E290E00E94E2
:1031A000002160E085E090E00E94002160E086E080
:1031B00090E00E9400216FEF87E090E00E940021E4
:1031C00040E050E0BA0188E090E00E94122160E007
:1031D0008DE090E00E94002140E050E0BA0188E1DB
:1031E00090E00E94122160E087E190E00E940021BF
:1031F00040E050E0BA018CE190E00E94122160E0D2
:1032000070E080E290E00E941E2140E050E0BA01B0
:1032100088E190E00E9412210C94A8180C94AF1839
:10322000682F8EE090E00C940021FC01329697E02C
:1032300080E0915029F021912223D9F38F5FF9CFBB
:103240000895662349F0FC01329608962191621791
:1032500029F0E817F907D1F780E0089581E0089593
:103260009C01FC0132969FEF80E04191461789F066
:103270009F3F19F4411101C0982F8F5F8630A9F745
:103280009F3F39F0F901E90FF11D97FDFA9562832F
:10329000089508959C012A5F3F4FFC014281461327
:1032A00001C01282019682179307B9F708950C9412
:1032B00030190C944A19029626E0FC0111922A95C5
:1032C000E9F7089508950C9462190C946219CF934C
:1032D0000E9465190E94E2050E946319C0E08C2FCC
:1032E0000E940305811104C0CF5FCA30C1F701C03D
:1032F00081E0CF9108950C9462190C947B19809110
:103300003C04843049F10E947D1980E00E940D0345
:103310001092050220E488E190E00FB6F894A89599
:10332000809360000FBE2093600083B7817F84602C
:1033300083BF83B7816083BF7894889583B78E7F7E
:1033400083BF0FB6F894A895809160008861809340
:103350006000109260000FBE08950C9462190E94E4
:1033600040120E940E0E0E940D030C94AD191F9284
:103370000F920FB60F9211248F939F93AF93BF9329
:1033800080910502811113C0809130049091310425
:10339000A0913204B09133044196A11DB11D8093D8
:1033A000300490933104A0933204B0933304BF915E
:1033B000AF919F918F910F900FBE0F901F90189516
:1033C00082E084BD93E095BD9AEF97BD80936E0037
:1033D00008952FB7F8948091300490913104A09112
:1033E0003204B09133042FBF08952FB7F894609141
:1033F00030047091310480913204909133042FBFD6
:1034000008959C014FB7F894809130049091310455
:10341000A0913204B09133044FBF821B930B0895E7
:1034200078941F920F920FB60F9211248F939F934F
:10343000AF93BF938091300490913104A0913204F6
:10344000B09133040196A11DB11D80933004909377
:103450003104A0933204B0933304BF91AF919F9194
:103460008F910F900FBE0F901F90189510923404FB
:103470001092350410923604109237040895CF92BA
:10348000DF92EF92FF926B017C010E94A4068111F2
:103490000EC00E94F519C61AD70AE80AF90AC092A6
:1034A0003404D0923504E0923604F0923704FF9051
:1034B000EF90DF90CF9008950F931F930E94A40682
:1034C000882321F01F910F910C94F5190E94F51992
:1034D0000091340410913504209136043091370462
:1034E000600F711F821F931F1F910F91089587E72F
:1034F00097E790930108809300089AE088E10FB65F
:10350000F894A895809360000FBE90936000FFCF61
:103510009093370180933601089580910E020895AB
:1035200008950895CF93DF9321E02093E9002FEFD2
:103530003091E800215035FD06C035ED3A95F1F7A0
:1035400000002111F5CF2091E80025FF14C0EC0107
:1035500040E050E068E070E00E943C1C8091E80090
:103560008E778093E80088E0FE01A6E0B2E001904B
:103570000D928A95E1F7DF91CF910895089580919A
:103580003B04811109C00E94CD1D0E942A1E80911A
:10359000E20084608093E200089510923B04089555
:1035A00008950895089542E061EC81E00C94461D71
:1035B00080913E04833009F460C030F4813071F0B2
:1035C000823009F499C008958A3009F485C08B309F
:1035D00009F46BC0893009F0A7C020C080913D0478
:1035E000813A09F0A1C08091E800877F8093E800CC
:1035F0008091410490914204892B21F468E086E097
:1036000092E003C060E080E090E070E00E94871CE0
:103610008091E8008B778093E800089580913D04C5
:10362000813209F081C08091410490914204892B3C
:1036300009F07AC08091E800877F8093E80080914C
:10364000E80082FD05C080913C048111F8CF6CC078
:103650002091F3008091F20090E0922B029729F4E0
:103660008091F1008B7F813021F48091F100809373
:103670000E028091E8008B7753C080913D04813A1F
:1036800009F052C08091410490914204892B09F0C5
:103690004BC08091E800877F8093E8008091E8002C
:1036A00080FFFCCF80911C0136C080913D048132A7
:1036B000D9F58091410490914204892BA9F580911C
:1036C000E800877F8093E8000E947B1D80913F0483
:1036D00080931C010C94401280913D04813221F5AD
:1036E0008091E800877F8093E8000E947B1D809195
:1036F000400480930F02089580913D04813AA1F423
:103700008091E800877F8093E8008091E80080FF47
:10371000FCCF80910F028093F1008091E8008E77BA
:103720008093E8000C947B1D089584B7877F84BF45
:103730000FB6F894A895809160008861809360002E
:10374000109260000FBE90E080E80FB6F89480936E
:103750006100909361000FBE0E947A0E0E94CD1D01
:103760000E942A1E8091E20084608093E200789497
:103770000E94BF200E94880E82E191E00E94090E03
:1037800080913C048530A9F480913C04853079F423
:103790000E947F1980913A048823B1F30E9467192F
:1037A000882391F30E94261C0E944012EDCF0E94B4
:1037B000AF190E94930E0E94840EE2CF0C94E01B7E
:1037C000292F332723303105C1F058F4213031053A
:1037D00079F02230310591F582E290E026E933E07C
:1037E00031C021323105E1F02232310501F126C02C
:1037F00082E190E028EB33E025C0992781309105E4
:1038000049F028F00297D1F4E0E7F3E005C0E2E9DF
:10381000F3E002C0E0E8F3E0849190E09F0112C081
:10382000672B61F489E090E028EA33E00BC0672B56
:1038300029F480E490E02AEC33E004C080E090E0DA
:1038400020E030E0FA0131832083089580E189BDD2
:1038500082E189BD09B400FEFDCF8091D8008F7D43
:103860008093D8008091E00082608093E000809196
:10387000E00081FDFCCF0895CF92DF92EF92FF929E
:103880000F931F93CF93DF93EC018B017A010E947A
:103890009A1D811133C0E114F10439F0F7018081E0
:1038A0009181081B190BC80FD91FC12CD12C0115F0
:1038B000110519F18091E80085FD16C08091E8009E
:1038C0008E778093E800E114F10449F0F7018081DC
:1038D0009181C80ED91ED182C08285E00FC00E949E
:1038E0009A1D882321F30AC089918093F100015029
:1038F0001109FFEFCF1ADF0ADACF80E0DF91CF9115
:103900001F910F91FF90EF90DF90CF90089520913D
:103910004304309144042617370748F061157105B8
:1039200039F42091E8002E772093E80001C0B90116
:10393000FC0120E06115710579F180913C04882338
:10394000F1F18530F1F18091E80083FD3CC0809178
:10395000E80082FD2EC08091E80080FFEBCF20912F
:10396000F3008091F20090E0922B6115710551F007
:103970008830910538F421912093F100615071094C
:103980000196F3CF21E0089709F020E08091E8004C
:103990008E778093E800CECF2111CFCF0AC08091DF
:1039A0003C04882361F0853061F08091E80083FD5C
:1039B0000AC08091E80082FFF2CF80E0089582E0A3
:1039C000089583E0089581E00895209143043091A3
:1039D00044042617370748F06115710539F4209122
:1039E000E8002E772093E80001C0B901FC0120E037
:1039F0006115710591F180913C04882309F440C060
:103A0000853009F43FC08091E80083FD3DC080917E
:103A1000E80082FD2FC08091E80080FFE9CF20916F
:103A2000F3008091F20090E0922B6115710559F03E
:103A30008830910540F424912093F1003196615033
:103A400071090196F2CF21E0089709F020E08091FA
:103A5000E8008E778093E800CBCF2111CCCF0AC04D
:103A600080913C04882361F0853061F08091E8000A
:103A700083FD0AC08091E80082FFF2CF80E00895C4
:103A800082E0089583E0089581E00895982F9730AB
:103A900068F59093E900981739F07091EC00209147
:103AA000ED005091F00003C0242F762F50E021FD4F
:103AB00002C09F5FECCF3091EB003E7F3093EB0074
:103AC0003091ED003D7F3093ED003091EB0031609F
:103AD0003093EB007093EC002093ED005093F000D6
:103AE0002091EE0027FDE5CF80E008958F70809350
:103AF000E90081E0089580913D0487FF11C0809125
:103B0000E80082FD05C080913C048111F8CF11C00E
:103B10008091E8008B770BC080913C04882349F0AA
:103B20008091E80080FFF8CF8091E8008E77809345
:103B3000E80008952091E4003091E50095E6409179
:103B4000EC00842F817040FF23C08091E80080FD4D
:103B50001DC080913C04882399F0853099F08091B4
:103B6000EB0085FD11C04091E4005091E500241761
:103B7000350729F3915011F09A01E1CF84E00895BF
:103B800082E0089583E0089581E0089580E008953B
:103B90004091E80042FFDDCF08950E943B1E0E9445
:103BA000431EE0EEF0E0808181608083E8EDF0E08C
:103BB00080818F77808319BCA7EDB0E08C918E7FD8
:103BC0008C9380818F7E808310923B0408950F93A5
:103BD0001F93CF93DF930E943B1E0E94431EC8EDAC
:103BE000D0E088818F778883888180688883888106
:103BF0008F7D888319BC10923C0410923804109277
:103C00003A041092390400EE10E0F80180818B7FB5
:103C1000808388818160888342E060E080E00E9448
:103C2000461DE1EEF0E080818E7F8083E2EEF0E0E1
:103C3000808181608083808188608083F8018081B9
:103C40008E7F8083888180618883DF91CF911F91EF
:103C50000F910895E8EDF0E080818F7E8083E7ED9D
:103C6000F0E080818160808384E082BF81E0809386
:103C70003B040C94E71DE8EDF0E080818E7F8083AB
:103C80001092E20008951092DA001092E100089577
:103C90001F920F920FB60F9211242F933F934F93C1
:103CA0005F936F937F938F939F93AF93BF93EF93A4
:103CB000FF938091E10082FF0BC08091E20082FFC0
:103CC00007C08091E1008B7F8093E1000E94BE20BD
:103CD0008091DA0080FF1FC08091D80080FF1BC058
:103CE0008091DA008E7F8093DA008091D90080FF86
:103CF0000DC080E189BD82E189BD09B400FEFDCF20
:103D000081E080933C040E94BF1A05C019BC109248
:103D10003C040E94CD1A8091E10080FF19C080917F
:103D2000E20080FF15C08091E2008E7F8093E20068
:103D30008091E20080618093E2008091D8008062EF
:103D40008093D80019BC85E080933C040E94D11A6E
:103D50008091E10084FF30C08091E20084FF2CC09C
:103D600080E189BD82E189BD09B400FEFDCF80916B
:103D7000D8008F7D8093D8008091E1008F7E809362
:103D8000E1008091E2008F7E8093E2008091E2006A
:103D900081608093E20080913804882311F084E0F0
:103DA00007C08091E30087FD02C081E001C083E08D
:103DB00080933C040E94D21A8091E10083FF29C0C5
:103DC0008091E20083FF25C08091E100877F80938E
:103DD000E10082E080933C04109238048091E1007D
:103DE0008E7F8093E1008091E2008E7F8093E200DD
:103DF0008091E20080618093E20042E060E080E038
:103E00000E94461D8091F00088608093F0000E941F
:103E1000D01AFF91EF91BF91AF919F918F917F91B8
:103E20006F915F914F913F912F910F900FBE0F9027
:103E30001F9018951F920F920FB60F9211242F9377
:103E40003F934F935F936F937F938F939F93AF9322
:103E5000BF93CF93DF93EF93FF93C091E900CF70AF
:103E60008091EC00D82FD17080FDD0E81092E9004D
:103E70008091F000877F8093F00078940E945E1F0D
:103E80001092E9008091F00088608093F000CD2BC3
:103E9000CF70C093E900FF91EF91DF91CF91BF9177
:103EA000AF919F918F917F916F915F914F913F91D2
:103EB0002F910F900FBE0F901F9018951F93CF93C7
:103EC000DF93CDB7DEB7AA970FB6F894DEBF0FBE6B
:103ED000CDBFEDE3F4E08091F100819324E0E5347F
:103EE000F207C9F70E94D81A8091E80083FF2EC11B
:103EF00080913D0490913E04492F50E04A30510595
:103F000008F024C1FA01E059FF4F0C94EC208038EE
:103F100021F0823809F01AC108C0809139049091CB
:103F20003A04992389F082600FC0809141048F7018
:103F3000873008F00BC18093E9008091EB0085FB8E
:103F4000882780F91092E9009091E800977F90937C
:103F5000E8008093F1001092F100D1C0282F2D7F4E
:103F600009F0F4C0882319F0823061F0EFC080912D
:103F70003F04813009F0EAC0933009F080E080937B
:103F80003A042EC080913F0481112AC080914104DF
:103F90008F702FEF280F263008F0D8C08093E900EB
:103FA0002091EB0020FF1CC0933021F48091EB00A6
:103FB000806214C09091EB0090619093EB0021E03F
:103FC00030E0A90102C0440F551F8A95E2F74093E3
:103FD000EA001092EA008091EB0088608093EB0089
:103FE0001092E9008091E800877F8093E8000E94AA
:103FF0007B1DACC08111AAC010913F041F77809136
:10400000E3008078812B8093E3008091E800877F34
:104010008093E8000E947B1D8091E80080FFFCCF28
:104020008091E30080688093E300111102C082E078
:1040300001C083E080933C0489C08058823008F03E
:1040400085C080913F04909140048C3D53E09507DA
:1040500079F583E08A838AE289834FB7F894DE0199
:10406000139620E03EE051E2E32FF0E0509357003A
:10407000E49120FF03C0E295EF703F5FEF708E2F59
:1040800090E0EA3010F0C79601C0C0968D939D93E2
:104090002F5F243149F74FBF8091E800877F8093DD
:1040A000E8006AE270E0CE0101960E94871C16C00B
:1040B0006091410470914204AE014F5F5F4F0E94D6
:1040C000DE1BBC01892B09F441C09091E800977F69
:1040D0009093E80089819A810E94E51C8091E80014
:1040E0008B778093E80032C0803881F58091E800BA
:1040F000877F8093E800809138048093F10080915D
:10410000E8008E7772CF811121C080913F04909199
:10411000400499270297D4F48091E800877F809328
:10412000E80080913F04809338040E947B1D8091B9
:104130003804811106C08091E30087FD02C081E050
:1041400001C084E080933C040E94D31A8091E8006F
:1041500083FF0AC08091E800877F8093E800809108
:10416000EB0080628093EB00AA960FB6F894DEBF56
:104170000FBECDBFDF91CF911F9108950895CF93CA
:1041800080913C048823A1F0C091E900CF70909108
:10419000EC00892F817090FD80E8C82B1092E90017
:1041A0008091E80083FD0E945E1FCF70C093E900FC
:1041B000CF9108950E94CD1D10923C040895E8ED22
:1041C000F0E08081806180838AE18A95F1F700C008
:1041D0008091D90081700895EE0FFF1F0590F49132
:1041E000E02D0994F999FECF92BD81BDF89A9927E7
:1041F00080B50895A8E1B0E042E050E00C9426219B
:10420000262FF999FECF92BD81BDF89A019700B48F
:10421000021639F01FBA20BD0FB6F894FA9AF99A2F
:104220000FBE08950396272F0E9401210E940021AE
:10423000252F0E940121242F0C9401210196272F64
:104240000E9401210C940021DC01CB01FC01F999B1
:10425000FECF06C0F2BDE1BDF89A319600B40D92D2
:0C42600041505040B8F70895F894FFCF8B
:10426C00010021007F2200036801046901056D0132
:10427C00F9018D1A921A901ABE1A911A01F6F73199
:10428C003332366697C63435000000000000081043
:06429C00181810080000D4
:00000001FF
